:400000000080002011000000311300003113000080B500AF024A034B1B68136001F0B4F9BC760040FA46004010B5054C237833B9044B13B10448AFF300800123237010BDE1
:40004000B881FF1F0000000094760000084B10B51BB108480849AFF300800848036803B910BD074B002BFBD0BDE81040184700BF0000000094760000BC81FF1F0881FF1FCD
:400080000000000080B500AF034B1B680133024A136006F04FFA80BDD481FF1F80B500AF0120012102F0BEFB80BD00BF80B500AFC820012102F0B6FB80BD00BF80B483B0E7
:4000C00000AF78600C37BD465DF8047B704700BFB0B5A2B000AF78600B46FB70FB78002B00F02E8207F108031846C4497A6806F0C7FE00BF03F0B6F80346002BFAD007F110
:400100000803184603F040F8FB78132B00F2F68101A252F823F000BF6901000091010000B5010000DF01000007020000310200005B02000083020000A7020000CB0200002C
:40014000F502000027030000510300007F030000A9030000D1030000410400006504000097040000CD04000007F10803A44A92E8030018600433198000BF03F073F80346D2
:40018000002BFAD007F10803184602F0FDFFC8E107F108039B4A07CA83E8070000BF03F061F80346002BFAD007F10803184602F0EBFFB6E107F10803934A07CA03C31A80F9
:4001C0000233120C1A7000BF03F04CF80346002BFAD007F10803184602F0D6FFA1E107F108038A4A1C4613460FCB07C4237000BF03F038F80346002BFAD007F108031846F9
:4002000002F0C2FF8DE107F10803814A07CA03C31A800233120C1A7000BF03F023F80346002BFAD007F10803184602F0ADFF78E107F10803774A07CA03C31A800233120C16
:400240001A7000BF03F00EF80346002BFAD007F10803184602F098FF63E107F108036E4A1C4613460FCB84E80F0000BF02F0FAFF0346002BFAD007F10803184602F084FF47
:400280004FE107F10803654A07CA03C31A8000BF02F0E8FF0346002BFAD007F10803184602F072FF3DE107F108035D4A07CA03C31A7000BF02F0D6FF0346002BFAD007F1EC
:4002C0000803184602F060FF2BE107F10803554A1C4615460FCD0FC42B68238000BF02F0C1FF0346002BFAD007F10803184602F04BFF16E107F108034B4A1C4615460FCD80
:400300000FC42B681A46228002341B0C237000BF02F0A8FF0346002BFAD007F10803184602F032FFFDE007F10803404A1C4615460FCD0FC42B68237000BF02F093FF0346C3
:40034000002BFAD007F10803184602F01DFFE8E007F10803364A1C4613460FCB07C4238002341B0C237000BF02F07CFF0346002BFAD007F10803184602F006FFD1E007F170
:4003800008032C4A1C4615460FCD0FC42B68237000BF02F067FF0346002BFAD007F10803184602F0F1FEBCE007F10803224A1C4613460FCB84E80F0000BF02F053FF03462C
:4003C000002BFAD007F10803184602F0DDFEA8E007F10803194A07CA03C31A800233120C1A7000BF02F03EFF0346002BFAD007F10803184602F0C8FE93E000BF9876000059
:40040000A8760000B0760000BC760000C8760000D8760000E4760000F0760000007700000C770000187700002C770000407700005477000064770000787700008877000083
:4004400007F10803404A07CA03C31A8000BF02F009FF0346002BFAD007F10803184602F093FE5EE007F10803384A1C4615460FCD0FC42B681A46228002341B0C237000BF70
:4004800002F0F0FE0346002BFAD007F10803184602F07AFE45E007F108032D4A1C4615460FCD0FC495E8030020600434218002340B0C237000BF02F0D5FE0346002BFAD0CD
:4004C00007F10803184602F05FFE2AE007F10803204A1C4615460FCD0FC495E8030020600434217000BF02F0BDFE0346002BFAD007F10803184602F047FE12E0FB7807F101
:400500000802104614491A4606F0BAFC00BF02F0A9FE0346002BFAD007F10803184602F033FE07F108030A221A8000BF02F09AFE0346002BFAD007F10803184602F024FE13
:400540008837BD46B0BD00BF94770000A0770000B4770000CC770000E47700002DE9F041ADF5C86D00AF6C46A0464FF4FA64C7F82846D7F828663446013CC7F824463446B8
:400580004FF00005A90141EA9461A00130464FF000018B0143EA90638201F30007330733DB08DB00ADEB030D6B460733DB08DB00C7F820363B46C14A1C4615460FCD0FC424
:4005C0002B68237000BF02F04DFE0346002BFAD03B46184602F0D8FD002005F03DFD034687F81F3697F81F363A461046B4491A4606F046FC00BF02F035FE0346002BFAD018
:400600003B46184602F0C0FD07F53B731846AD49012205F0FFF8034687F81E3697F81E36002B00F084803B46A74A1C4615460FCD0FC495E8070084E8070000BF02F012FE6B
:400640000346002BFAD03B46184602F09DFD97F81E36013B0C2B67D801A252F823F000BFBB06000029070000DF0600002907000029070000290700002907000029070000B7
:4006800029070000290700009506000029070000030700003B468D4A1C4615460FCD0FC42B68238000BF02F0DDFD0346002BFAD03B46184602F068FD37E03B46844A1C4644
:4006C00013460FCB07C4237000BF02F0CBFD0346002BFAD03B46184602F056FD25E03B467C4A1C4613460FCB07C4238000BF02F0B9FD0346002BFAD03B46184602F044FD88
:4007000013E03B46744A1C4615460FCD0FC42B68238000BF02F0A6FD0346002BFAD03B46184602F031FD00E000BF00F076BD3B466A4A1C4615460FCD0FC495E8070003C4A6
:40074000227000BF02F08EFD0346002BFAD03B46184602F019FD07F53B731B78022B18D0032B2BD0012B3ED13B465D4A92E8030018600433198002330A0C1A7000BF02F05D
:4007800071FD0346002BFAD03B46184602F0FCFC39E03B46534A92E8030018600433198002330A0C1A7000BF02F05CFD0346002BFAD03B46184602F0E7FC24E03B464A4ADE
:4007C00092E8030018600433198002330A0C1A7000BF02F047FD0346002BFAD03B46184602F0D2FC0FE03B46404A07CA03C31A7000BF02F037FD0346002BFAD03B46184670
:4008000002F0C2FC00BF3B46394A1C4615460FCD0FC495E8070003C4227000BF02F022FD0346002BFAD03B46184602F0ADFC4FF4FA7001F0CBFA002001F0CEFD2D482E4949
:400840000A2205F013F8034687F81D3697F81D362A481946FFF73CFC97F81D36002B01D000F0DBBC0E23C7F818363B46244A1C4613460FCB07C4238002341B0C237000BF0C
:4008800002F0F0FC0346002BFAD03B46184602F07BFC07F1C00317481949D7F8182605F08FF9034687F8173697F8173615481946FFF70EFC0023C7F83C3644E0E87700004A
:4008C000FC7700001478000018780000347800004878000058780000687800007C78000098780000A0780000A8780000B0780000BC7800000882FF1FD8780000E478000061
:40090000EC780000FC780000D7F83C0605F078FF04460D46D7F83C0605F072FF02460B462046294605F0D2FF02460B46D7F82006D7F83C16C9000144C1E90023D7F83C364F
:400940000133C7F83C36D7F83C26D7F828369A42DAD32223C7F810363B461846CE494FF47A5206F08DFA00BF02F07CFC0346002BFAD03B46184602F007FC07F1BC03C7485E
:40098000C549D7F8102605F01BF9034687F80F3697F80F36C2481946FFF79AFBC14B1B68C7F8083607F1C4031846BF490A2204F05DFF034687F81D3697F81D36BB481946BA
:4009C000FFF786FB97F81D36002B22D1D7F8202607F1C40107F5A463084611464FF47A5205F0EEF8034687F81D3697F81D36AC481946FFF76DFB07F1C403184605F006FA5C
:400A0000034687F81D3697F81D36A9481946FFF75FFBA44B1A68D7F80836D31AC7F804360C23C7F800363B461846A249D7F8042606F026FA00BF02F015FC0346002BFAD0B8
:400A40003B46184602F0A0FB07F1B80393489949D7F8002605F0B4F8034687F8FF3597F8FF358F481946FFF733FB4FF4FA32D7F80436B2FBF3F3C7F8F8350F23C7F8F435DA
:400A80003B4618468C49D7F8F82506F0F9F900BF02F0E8FB0346002BFAD03B46184602F073FB07F1B4037D488349D7F8F42505F087F8034687F8F33597F8F335784819463B
:400AC000FFF706FB2423C7F8EC353B4618467B494FF47A5206F0D4F900BF02F0C3FB0346002BFAD03B46184602F04EFB07F1B0036A487249D7F8EC2505F062F8034687F88D
:400B0000EB3597F8EB3566481946FFF7E1FAD7F82036184600214FF47A5206F0A8F9614B1B68C7F8083607F1C40318465E49012204F09CFE034687F81D3697F81D365B487D
:400B40001946FFF7C5FA97F81D36002B22D1D7F8202607F1C40107F21C53084611464FF47A5204F071FF034687F81D3697F81D3653481946FFF7ACFA07F1C403184605F06A
:400B800045F9034687F81D3697F81D3648481946FFF79EFA434B1A68D7F80836D31AC7F804361823C7F8E4353B4618464549D7F8042606F065F900BF02F054FB0346002B39
:400BC000FAD03B46184602F0DFFA07F1AC0333483C49D7F8E42504F0F3FF034687F8E33597F8E3352E481946FFF772FA002387F83B360023C7F8343621E0D7F82026D7F81A
:400C00003436DB001344D3E90045D7F83436D7F8342602FB03F3184605F0F2FD02460B462046294606F0BAF80346002B02D1012387F83B36D7F834360133C7F83436D7F8AA
:400C40003436B3F5FA7FD8DB97F83B36002B3DD00823C7F8DC353B461B4A07CA03C31A7000BF02F0FFFA0346002BFAD03B46184602F08AFA07F1A80308481349D7F8DC25A0
:400C800004F09EFF034687F8DB3597F8DB3504481946FFF71DFA41E0047900000882FF1FFC780000D481FF1F28790000E4780000387900004079000050790000607900003E
:400CC0008879000090790000AC7900000E23C7F8D4353B46354A1C4613460FCB07C4238002341B0C237000BF02F0BCFA0346002BFAD03B46184602F047FA07F1A4032C480F
:400D00002A49D7F8D42504F05BFF034687F8D33597F8D33527481946FFF7DAF94FF4FA32D7F80436B2FBF3F3C7F8F8350F23C7F8CC353B4618462049D7F8F82506F0A0F881
:400D400000BF02F08FFA0346002BFAD03B46184602F01AFA07F1A00315481749D7F8CC2504F02EFF034687F8CB3597F8CB3511481946FFF7ADF93B46104A1C4615460FCDBE
:400D80000FC495E8070003C4227000BF02F06AFA0346002BFAD03B46184602F0F5F9012001F01AFB0023C7F8303625E2B87900000882FF1FFC78000050790000C8790000A4
:400DC0001E23C7F8C4353B461846CF494FF47A5206F056F800BF02F045FA0346002BFAD03B46184602F0D0F907F19C03C748C649D7F8C42504F0E4FE034687F8C33597F856
:400E0000C335C3481946FFF763F9C24B1B68C7F8083607F1C4031846BF490A2204F026FD034687F81D3697F81D36BC481946FFF74FF997F81D36002B22D1D7F8202607F15E
:400E4000C40107F5A463084611464FF47A5204F0B7FE034687F81D3697F81D36AC481946FFF736F907F1C403184604F0CFFF034687F81D3697F81D36A9481946FFF728F995
:400E8000A44B1A68D7F80836D31AC7F804360C23C7F8BC353B461846A249D7F8042605F0EFFF00BF02F0DEF90346002BFAD03B46184602F069F907F1980394489949D7F830
:400EC000BC2504F07DFE034687F8BB3597F8BB358F481946FFF7FCF84FF4FA32D7F80436B2FBF3F3C7F8F8350F23C7F8B4353B4618468D49D7F8F82505F0C2FF00BF02F072
:400F0000B1F90346002BFAD03B46184602F03CF907F194037D488449D7F8B42504F050FE034687F8B33597F8B33579481946FFF7CFF82023C7F8AC353B4618467B494FF4EB
:400F40007A5205F09DFF00BF02F08CF90346002BFAD03B46184602F017F907F190036B487249D7F8AC2504F02BFE034687F8AB3597F8AB3566481946FFF7AAF8D7F8203628
:400F8000184600214FF47A5205F071FF614B1B68C7F8083607F1C40318465F49012204F065FC034687F81D3697F81D365B481946FFF78EF897F81D36002B22D1D7F8202645
:400FC00007F1C40107F21C53084611464FF47A5204F03AFD034687F81D3697F81D3654481946FFF775F807F1C403184604F00EFF034687F81D3697F81D3649481946FFF791
:4010000067F8444B1A68D7F80836D31AC7F804361823C7F8A4353B4618464649D7F8042605F02EFF00BF02F01DF90346002BFAD03B46184602F0A8F807F18C0333483D49F3
:40104000D7F8A42504F0BCFD034687F8A33597F8A3352F481946FFF73BF8002387F83B360023C7F82C3621E0D7F82026D7F82C36DB001344D3E90045D7F82C36D7F82C2602
:4010800002FB03F3184605F0BBFB02460B462046294605F083FE0346002B02D1012387F83B36D7F82C360133C7F82C36D7F82C36B3F5FA7FD8DB97F83B36002B3ED0082306
:4010C000C7F89C353B461C4A07CA03C31A7000BF02F0C8F80346002BFAD03B46184602F053F807F1880309481349D7F89C2504F067FD034687F89B3597F89B3504481946D3
:40110000FEF7E6FF42E000BFE47900000882FF1FFC780000D481FF1F047A0000E4780000387900004079000050790000147A00008879000090790000AC7900000E23C7F84E
:4011400094353B46424A1C4613460FCB07C4238002341B0C237000BF02F084F80346002BFAD03B46184602F00FF807F1840339483749D7F8942504F023FD034687F89335B7
:4011800097F8933534481946FEF7A2FF4FF4FA32D7F80436B2FBF3F3C7F8F8350F23C7F88C353B4618462D49D7F8F82505F068FE00BF02F057F80346002BFAD03B46184605
:4011C00001F0E2FF07F1800322482449D7F88C2504F0F6FC034687F88B3597F88B351E481946FEF775FF4FF47A7000F0EFFDD7F830360133C7F83036D7F83036132B7FF7E0
:40120000DFAD144804F002FE034687F81D3697F81D3613481946FEF75BFF002001F0CEFB3B46104A1C4613460FCB84E80F0000BF02F018F80346002BFAD03B46184601F038
:40124000A3FFC54607F5C867BD46BDE8F08100BFB87900000882FF1FFC7800005079000038790000387A000080B5A2B000AF4FF47A7000F0ABFD012001F0A0FB62B6264817
:4012800001F0ACFB0020022101F006FC00BF01F0A3FD0346002BFAD001F00AFF0523C7F8843019E03B1D18461C49D7F8842005F0E7FD00BF01F0D6FF0346002BFAD03B1DC2
:4012C000184601F061FF4FF47A7000F07FFDD7F88430013BC7F88430D7F88430002BE1DC3B1D0F4A07CA03C31A800233120C1A7000BF01F0B7FF0346002BFAD03B1D1846F0
:4013000001F042FF00F0D8FE06480749074A00F0A3FEFFF723F9C1E785000000487A0000507A0000AD0000009D000000BD00000080B400AFFEE700BF80B584B000AF7860EC
:401340000F4B1A687B6813441A460E4BD31A802B09DC0B4B1B68FB60094B1A687B681344074A136007E005F04BFD02460C2313604FF0FF33FB60FB6818461037BD4680BDF7
:401380000C81FF1F3085FF1F80B586B000AF224B7B61224B3B61204B7B6135E03B691B68FB603B695B68BB603B699B683B6000237B600CE0FB681A68BB681A60BB680433DB
:4013C000BB60FB680433FB607B6804337B607A683B689A42EED13B69DB683B6000237B6008E0BB6800221A60BB680433BB607B6804337B607A683B689A42F2D13B6910332C
:401400003B617B69013B7B617B69002BC6D105F0FDFCFFF729FFFEE701000000807C000080B582B000AF184B184A1A60184A184B1B6843F40073136000237B600FE07B68F6
:40144000032B04D8134A7B6852F8233000E0124B12497A6841F822307B6801337B607B682F2BECD90E4B1B78DAB20E4B1A700E4B0A4A1A6000F026F900F0F6F90B4B0022A4
:401480001A600837BD4680BD0CED00E00004FA0514ED00E000000000311300000080FF1FBC7600400481FF1F08ED00E00081FF1F80B582B000AF78603960786800213A68E1
:4014C00005F0D5FC0837BD4680BD00BF80B584B000AFF860B9607A60F868B9687A6805F0BBFC1037BD4680BD80B483B000AF0346FB71FEE780B487B000AF78603960002391
:401500003B6100237B6127E07B699B007A6813441B68BB60BB68FB73BB6823F0FF03BB6014E03B695B003A6813441B781A46BB68134419463B695B003A6813445B780B70D1
:401540003B6901333B61FB7B013BFB73FB7B002BE7D17B6901337B617B69182BD4D91C37BD465DF8047B704780B582B000AF334BC7221A80324B18221A70324B4BF67F320E
:401580001A80314B18221A70304B06221A70304B52221A702F4B304A1278D2B21A702F4B4FF4E2621A802E4B41F251221A800023FB7019237B6014E0FB785B00DAB2294B64
:4015C0001B78DBB203F00103DBB21343DBB203F00303FB704FF4F07000F036F97B68013B7B607B68002B02D0FB78032BE4D17B68002B02D10320FFF777FF1B4B4FF4807203
:401600001A80194B07221A70184B00221A70184B48221A70144B00221A70164B00221A70154B02221A70154A144B1B78DBB243F00303DBB213700837BD4680BD80400040C7
:401640008240004084400040864000400043004000420040A14600400F0100492242004020420040254200400440004006400040084000400940004001400040A24300402B
:4016800080B483B000AF0B4B1B78FB710A4AFB7903F00703DBB21370084AFB791B09DBB21370074B44221A700C37BD465DF8047B704700BFCF0100496E5800406F580040F8
:4016C0007658004080B586B000AF72B64B4A4B4B1B78DBB243F00403DBB213700023FB7513E0FA7D13465B0013445B00444A13443B613B691A683B699B889BB21046194632
:40170000FFF7D6FEFB7D0133FB75FB7D082BE8D90023FB751CE0FA7D13469B0013445B00384A1344FB60FB681B68BB60FB685B687B60FB681A7A5B7A1B0213437B807B8838
:40174000B86879681A46FFF7C1FEFB7D0133FB75FB7D002BDFD04FF090402B49FFF7CAFE2A480421FFF7A4FE29482A490422FFF7ADFE294A284B1B78DBB243F00203DBB2FF
:401780001370264A254B1B78DBB243F00203DBB21370234A224B1B78DBB243F04003DBB21370204A1F4B1B78DBB243F01003DBB213701D481D490A22FFF788FE1C481D4957
:4017C0000822FFF783FE1C4A1B4B1B78DBB243F00803DBB21370194B61221A70FFF7C4FE164BC1221A70FFF74BFF15480C490E22FFF76CFE1837BD4680BD00BFE8460040D9
:401800005C7A0000947A0000640000480076004008760040600300480350014013500140A0430040C2430040F05100404C03004822510040580300482243004000480040BE
:40184000B0430040000000000230800803D000BF01380046FCD17047EFF3108072B6704780F31088704700BF80B483B000AF134B7F221A70124B80221A707F23FB710CE0F2
:40188000FB79DB0003F1804303F5F043FA79013AD2B21A70FB79013BFB71FB79002BEFD1FB79DB0003F1804303F5F04300221A700C37BD465DF8047B704700BF1181FF1FA3
:4018C0001081FF1F80B485B000AF03460A46FB711346BB710123FB60FB79172B2FD8BB79002B0ED0FB791A01184B1344FA791101164A0A441278D2B242F02002D2B21A7032
:401900000DE0FB791A01114B1344FA7911010F4A0A441278D2B222F02002D2B21A70FB791A010A4B1344FA791101084A0A441278D2B242F00102D2B21A700023FB60FB686A
:4019400018461437BD465DF8047B70471070004080B485B000AF0346FB710123FB60FB79172B1DD8FB791A01114B1344FA7911010F4A0A441278D2B222F00102D2B21A70DA
:40198000FB791A010A4B1344FA791101084A0A441278D2B222F02002D2B21A700023FB60FB6818461437BD465DF8047B704700BF1070004080B485B000AF0346FB710123EF
:4019C000FB60FB79172B1DD8FB791A01114B1344FA7911010F4A0A441279D2B242F00402D2B21A71FB791A010A4B1344FA791101084A0A441278D2B242F00102D2B21A706C
:401A00000023FB60FB6818461437BD465DF8047B704700BF1070004080B485B000AF03460A46FB711346BB710123FB60FB79172B18D8FB791A010F4B13441B78DBB223F0D5
:401A40000E03FB72FB791A010A4B1344BA7902F00702D2B25200D1B2FA7A0A43D2B21A700023FB60FB6818461437BD465DF8047B704700BF1070004080B485B000AF03465F
:401A8000FB710B46BB8013467B800123FB60BB8841F6FF72934202D14FF40053BB807B8841F6FF72934202D14FF400537B80FB79172B17D8FB79DB0003F1804303F5EC4341
:401AC0000433BB60BB68BA881A80FB79DB0003F1804303F5EC430633BB60BB687A881A800023FB60FB6818461437BD465DF8047B704700BF80B485B000AF03460A46FB7161
:401B00001346BB710123FB60FB79172B07D8FB791A01064B1344BA795A720023FB60FB6818461437BD465DF8047B70471070004080B485B000AF03460A46FB711346BB715C
:401B40000123FB60FB79172B14D8FB791A010D4B1344FA7911010B4A0A441279D2B2D1B2BA7902F00702D2B20A43D2B2D2B21A710023FB60FB6818461437BD465DF8047B59
:401B8000704700BF1070004090B484B000AF0446084611461A462346FB710346BB710B467B7113463B710123FB60FB79172B34D8FB79DB0003F1804303F5EC43BA7902F05A
:401BC0007F02D1B27A79D201D2B20A43D2B21A70FB79DB0003F1804303F5EC433A7E1201D1B23A7902F00F02D2B20A43D2B25A70FB79DB0003F1804303F5EC433A7F02F014
:401C00000F02D2B29A70FB79DB0003F1804303F5EC430022DA700023FB60FB6818461037BD4690BC704700BF80B582B000AFFF23FB71FFF711FE0346BB71104B1B78182BD2
:401C400012D90F4B1B78FB710C4B1B78013BDAB20A4B1A70FB79DB0003F1804303F5F0431B78DAB2064B1A70BB791846FFF7F8FDFB7918460837BD4680BD00BF1081FF1F28
:401C80001181FF1F80B584B000AF0346FB71FB795BB2002B19DBFFF7DFFD0346FB73FB79DB0003F1804303F5F043094A12781A70074AFB791370074B1B780133DAB2054BA9
:401CC0001A70FB7B1846FFF7CBFD1037BD4680BD1181FF1F1081FF1F90B484B000AF0446084611461A462346FB710346BB800B46BB711346FB700123FB60FB795BB2002BA7
:401D000023DBBB8823F47F6323F00F039BB2002B1BD1FB79DB0003F1804303F5F043BB60BB68BA881A80FB79DB0003F1804303F5F043BA799A70FB79DB0003F1804303F529
:401D4000F043FA78DA700023FB60FB6818461037BD4690BC704700BF80B485B000AF0346FB710B46BB8013467B800123FB60FB795BB2002B17DBFB79DB0003F1804303F561
:401D8000F0430433BB60BB68BA881A80FB79DB0003F1804303F5F0430633BB60BB687A881A800023FB60FB6818461437BD465DF8047B704780B483B000AF0346FB7101BEB9
:401DC0000C37BD465DF8047B704700BF80B582B000AF786008E00C4B1B681846FFF734FD7B68A3F500437B607B68B3F5004FF2D8064B1B687A6802FB03F31846FFF724FDC3
:401E00000837BD4680BD00BF2481FF1F1C81FF1F80B582B000AF0346FB80FB88044A127802FB03F31846FFF70FFD0837BD4680BD2081FF1F80B584B000AF03463960FB71BA
:401E40000F4B1B68FB60FB791F2B02D90020FFF7B1FFFB7903F01F0310339B00FA6813441B68BB60FB7903F01F0310339B00FA6813443A681A60BB6818461037BD4680BDC9
:401E800008ED00E080B582B000AF03460A46FB711346BB71BB79072B02D90020FFF78AFFFB791F2B02D90020FFF784FFFB7903F01F0303F1604303F56443BA795201D2B2D2
:401EC0001A700837BD4680BD80B483B000AF7860264B1B78DBB21A467B681A60244B1B78DBB21B027A6812681A437B681A60214B1B78DBB21B047A6812681A437B681A601A
:401F00001D4B1B78DBB21B067A6812681A437B681A607B680433194A1278D2B21A60184B1B78DBB21A027B6804337968043109680A431A60134B1B78DBB21A047B68043320
:401F40007968043109680A431A600F4B1B78DBB21A067B6804337968043109680A431A600C37BD465DF8047B704700BF0301004904010049EC4600400201004901010049DD
:401F800000010049050100490601004980B400AF054B1B78DBB223F00203DAB2024B1A70BD465DF8047B7047D881FF1F80B500AF184800F0B5FA012001214FF4804241F603
:401FC000FF7300F06FFA03461A46134B1A700120012141F6FF724FF4804300F025FA03461A460E4B1A70FFF71FFE03461A460C4B1A70FFF719FE03461A460A4B1A70064B76
:402000001B781846FFF7D6FC044B1B781846FFF7D1FC80BD8D1F0000DB81FF1FDD81FF1FE081FF1FDC81FF1F80B500AF084B1B781846FFF727FE074B1B781846FFF722FE6F
:4020400000F080FA00F062FA00F022FA80BD00BFE081FF1FDC81FF1F80B58EB000AFF860B9607A600D4B3B620D4B7B620D4BFB620D4B3B630D4BBB620D4B3B610D4B7B61C9
:40208000BB68FB61FB68BB617B687B6307F11003184603F0A7FF3837BD4680BDB9200000D52000005922000011210000A9230000F92000000521000080B500AF044B0022D5
:4020C0001A7000F0CDFA002000F086F980BD00BFD881FF1F80B500AF064B1B78002B04D0FFF7A2FF034B00221A7000F00BF800F0C7FA80BDDA81FF1F80B500AF002000F0F7
:40210000BBFC80BD80B500AF012000F0B5FC80BD80B584B000AF786039603B68B3F5805F02D23B68002B00D185E0444B1B78002B70D0434B1A783B689BB210461946FE22CB
:402140000523FFF7C9FD3E4B1A787B689BB21046194646F24E42FFF7FFFD3A4B1A78384B1B7810461946FFF7C5FC374B1A783B689BB210461946FE220423FFF7ADFD324B0B
:402180001A78324B9BB2104646F25E411A46FFF7E3FD2F4B1A782C4B1B7810461946FFF7A9FC284B1B781846FFF704FC284B1B781846FFF7FFFB274B1B78DBB243F0020382
:4021C000DAB2244B1A70224B1B7818460121FFF779FB1C4B1B7818460121FFF773FB194B1B7818460121FFF7A3FC00BF194B1B78DBB203F00203002BF8D1124B1B78184609
:402200000421FFF795FC124B1B7818460421FFF78FFC10E00023FB6009E07A68FB6813441B78184600F0C0F8FB680133FB60FA683B689A42F1D31037BD4680BDDA81FF1FDB
:40224000E081FF1FDD81FF1FDC81FF1F2881FF1FDB81FF1FD881FF1F90B585B000AF786039603B68B3F5805F02D23B68002B00D189E0464B1B78002B73D0454B1A783B6839
:402280009BB210461946FE220423FFF725FD404B1A78404B9BB21046194646F24E42FFF75BFD3D4B1A783A4B1B7810461946FFF721FC3A4B1A783B689BB210461946FE2227
:4022C0000623FFF709FD354B1A787B689BB2104646F25E411A46FFF73FFD314B1A782F4B1B7810461946FFF705FC2A4BFF221A702C4B1B78DBB243F00203DAB2294B1A7078
:40230000254B1B781846FFF755FB254B1B781846FFF750FB224B1B7818460121FFF7D2FA1D4B1B7818460121FFF7CCFA1A4B1B7818460121FFF7FCFB00BF1A4B1B78DBB232
:4023400003F00203002BF8D1134B1B7818460421FFF7EEFB124B1B7818460421FFF7E8FB11E00023FB600AE07A68FB68D418FF2000F01AF803462370FB680133FB60FA68F7
:402380003B689A42F0D31437BD4690BDDA81FF1FE081FF1F2881FF1FDD81FF1FDC81FF1FDB81FF1FD881FF1F80B582B000AF0346FB71FB79184600F0C1F900BF00F016FA93
:4023C000034603F00803002BF8D000F0D1F9034618460837BD4680BD80B582B000AF0346FB7100BF0E4B1B78DBB2002BFAD10D4B1B78FA799A4200D10EE0FB79002B06D05C
:40240000084B1B78002B04D1FFF7D0FD01E0FFF70BFE044AFB7913700837BD4680BD00BFD881FF1FDA81FF1F90B585B002AF0446084611461A462346FB710346BB710B468B
:40244000BB8013467B80114B01221A700F4B1878F979BA7900230093002301930123FFF793FB0A4B1978BA887B88084611461A46FFF702FB054B1B7818460221FFF7CCFADD
:40248000024B1B7818460C37BD4690BD2C81FF1F80B500AF024B1B781846FFF759FA80BD2C81FF1F90B585B002AF0446084611461A462346FB710346BB710B46BB80134664
:4024C0007B80114B00221A700F4B1878F979BA7900230093002301930023FFF755FB0A4B1978BA887B88084611461A46FFF7C4FA054B1B7818460221FFF78EFA024B1B78CE
:4025000018460C37BD4690BD2D81FF1F80B500AF024B1B781846FFF71BFA80BD2D81FF1F80B582B000AF786000F046F8786800F013F8072000F022F800F032F80837BD4624
:4025400080BD00BF80B500AF00F036F8014800F003F880BD3113000080B485B000AF7860054B1B68FB60FB6840337A681A601437BD465DF8047B704708ED00E080B483B043
:4025800000AF0346FB71054AFB795B01DBB213700C37BD465DF8047B704700BF00E400E080B400AF034B01221A60BD465DF8047B704700BF00E100E080B400AF034B012204
:4025C0001A60BD465DF8047B704700BF80E100E080B500AF074B0F221A7000F0D9F800F08DF800F09BF8044B02221A70034B20221A7080BD8F6400408C6400408D64004041
:4026000080B582B000AFFFF727F90346FB71114A104B1B78DBB243F02003DBB213700E4A0D4B1B78DBB243F01003DBB213700B4A0A4B1B78DBB243F01003DBB21370FB79C3
:402640001846FFF70DF900F041F800F045F80837BD4680BD9F6400409C6400409D64004080B500AF054B1B78002B04D1FFF7B0FF024B01221A70FFF7C3FF80BDE481FF1F89
:4026800080B582B000AFFFF7E7F80346FB710D4A0C4B1B78DBB223F01003DBB213700A4A094B1B78DBB223F01003DBB21370FB791846FFF7D5F800F015F800F019F80837A6
:4026C000BD4680BD9C6400409D64004080B400AFBD465DF8047B704780B400AFBD465DF8047B704780B400AFBD465DF8047B704780B400AFBD465DF8047B704780B483B0EE
:4027000000AF054B1B78FB71FB7918460C37BD465DF8047B704700BF6C64004080B483B000AF054B1B78FB71FB7918460C37BD465DF8047B704700BF6D64004080B483B0EA
:4027400000AF0346FB7100BF074B1B78DBB203F00403002BF8D0054AFB7913700C37BD465DF8047B704700BF6C6400404E64004080B483B000AF054B1B78FB71FB791846C8
:402780000C37BD465DF8047B704700BF5E64004080B582B000AF01E0114B1B78114B1B78DBB203F02003002BF6D1FFF755F80346FB710D4A0C4B1B78DBB243F00103DBB293
:4027C0001370094A084B1B78DBB223F00103DBB21370FB791846FFF743F80837BD4680BD5E6400406D6400409E64004080B483B000AF0A4B1B78FB71094B1B78DAB2FB7941
:402800001343FB71FB7923F01003FB71FB7918460C37BD465DF8047B704700BF6D6400406C64004080B584B000AF03460A46FB8013467B7100F0B2F80346FB7300F0A2F801
:402840000346BB81FA88BB899A4200F08780454B1B78DBB203F00103FB72FB7B002B20D1BB89002B02D0FB88002B1AD1BB89002B0BD13D4AFB8813803C4A3C4B1B78DBB2A5
:4028800023F04003DBB2137068E0384A374B1B78DBB243F04003DBB21370334AFB8813805CE0FB7A002B33D0314B00221A70314B01221A70304B00221A70304A2F4B1B784F
:4028C000DBB203F07F03DBB21370284B1B78DBB203F00803002B02D0FB88002B18D1284ABB891380224B07221A7000BF204B1B78DBB203F00103002BF8D11A4A194B1B78A8
:40290000DBB223F00103DBB21370194B00221A70144B1B78DBB203F00103002B13D0184AFB881380124A7B79002B01D0032300E00123137000BF0E4B1B78DBB203F00103AF
:40294000002BF8D10AE0084AFB8813800549054B1B78DAB2FB7A1343DBB20B701037BD4680BD00BFA2430040804000408240004001400040104000401440004008400040E7
:402980000240004080B400AF034B1B889BB21846BD465DF8047B70478040004080B400AF054B1B78DBB203F00703DBB21846BD465DF8047B704700BF8240004080B483B097
:4029C00000AF0346FB71044AFB7913700C37BD465DF8047B704700BF7C64004080B582B000AF786000F03CF8786800F009F8072000F018F800F028F80837BD4680BD00BF26
:402A000080B485B000AF7860054B1B68FB60FB6844337A681A601437BD465DF8047B704708ED00E080B483B000AF0346FB71054AFB795B01DBB213700C37BD465DF8047B80
:402A4000704700BF01E400E080B400AF034B02221A60BD465DF8047B704700BF00E100E080B400AF034B02221A60BD465DF8047B704700BF80E100E080B483B000AF034682
:402A8000FB71044AFB7913700C37BD465DF8047B704700BF7D64004080B582B000AF03460A46FB711346BB71084B1B78002B04D100F00EF8054B01221A70FA79BB7910463E
:402AC000194600F0D5F80837BD4680BDE581FF1F80B582B000AFFEF7BFFE0346FB71534A524B1B78DBB243F00103DBB21370504A4F4B1B78DBB243F00103DBB213704D4B66
:402B000001221A704C4B02221A704C4A4B4B1B78DBB203F07F03DBB213700020FFF778F9474A474B1B78DBB223F00603DBB21370444A444B1B78DBB223F02003DBB2137059
:402B40003F4A3F4B1B78DBB243F00103DBB213700120FFF75DF92820FFF75AF93A4A3A4B1B78DBB203F07F03DBB21370364A364B1B78DBB223F04003DBB21370304A304BB3
:402B80001B78DBB243F00203DBB213700220FFF73FF92B4A2A4B1B78DBB243F00403DBB213702A4B00221A70294B00221A70FB791846FEF755FE17200721FFF763F91720C6
:402BC0002449FFF737F918200721FFF75BF918202149FFF72FF915200721FFF753F915201E49FFF727F903200721FFF74BF903201B49FFF71FF904200721FFF743F90420CB
:402C00001849FFF717F905200721FFF73BF905201549FFF70FF90C200721FFF733F90C201249FFF707F90837BD4680BDA5430040B54300409D6000400960004010600040CD
:402C40009443004012600040F851004084600040856000404D3A00001D330000413A00003D39000091390000E5390000593A000080B582B000AF03460A46FB711346BB71D6
:402C80002E4AFB7913702E4B00221A702D4B00221A702D4B00221A702C4B00221A702C4B00221A702B4B00221A702B4B00221A702A4B4FF400021A60284B4FF080721A605C
:402CC000264B4FF400121A60244B08221A60234B10221A60214B20221A60BB79002B02D0012B09D011E01E4A1D4B1B78DBB223F00103DBB2137011E0194A194B1B78DBB229
:402D000043F00103DBB2137008E0154A144B1B78DBB243F00103DBB2137000BF114B03221A70114B80221A700120FEF78DFD0F4B04221A700837BD4680BD00BFDB84FF1F88
:402D4000DA84FF1F4C84FF1F4D84FF1F4E84FF1FDE84FF1F4F84FF1F4B84FF1F00E100E00960004028600040086000401260004080B400AF0F4B00221A700F4B00221A7031
:402D80000E4B00221A700E4B00221A700D4B00221A700D4B00221A700C4B00221A700C4B03221A700B4B80221A70BD465DF8047B704700BFDA84FF1F4C84FF1F4D84FF1FD0
:402DC0004E84FF1FDE84FF1F4F84FF1F4B84FF1F286000400860004080B400AF034B1B78DBB21846BD465DF8047B70474D84FF1F80B483B000AF0346FB71FA790649134603
:402E00005B0013449B000B445B78DBB218460C37BD465DF8047B70476C84FF1FB0B485B000AF03463960FB711346BB80FB79002B66D0FB79082B63D8B988FA7932481346F1
:402E40005B0013449B000344DB889BB2C3F5007399420BD9FA792C4913465B0013449B000B44DB889BB2C3F50073BB80274CF979BB881B0A9BB2D8B2FA79234D13465B0076
:402E800013449B002B44DB78DBB20343DAB20B0123441A701D4AFB79B988C9B21B0113440A465A703B68002B13D00023FB810CE01748FB79FA8939680A4412781B01034470
:402EC00008331A70FB890133FB81FA89BB889A42EED3FA790C4913465B0013449B000B4400225A700948F979FA79074C13465B0013449B0023445B79DAB20B0103449A707A
:402F00001437BD46B0BC70476C84FF1FFC5F00407060004090B482B000AF0346FB71FB79002B19D0FB79082B16D8FA790C4913465B0013449B000B4400225A700948F97904
:402F4000FA79074C13465B0013449B0023445B79DAB20B0103449A700837BD4690BC70476C84FF1FFC5F004080B582B000AF0023FB71324B1B79DBB2184600F069F8034698
:402F8000BB712E4B1B78DBB2DBB25BB2002B16DA2A4B5B78DBB2212B00D00FE0284B07221A80BA791346DB009B1A264A1344244A536000F02DFB0346FB7100BF38E01F4B6F
:402FC0005B78DBB2202B02D0222B1AD030E01C4B07221A80BA791346DB009B1A194A1344174A5360BB79BA7917498A5CD2B242F00102D1B2144AD15400F08AFB0346FB7163
:4030000016E0BB790D4A9278D2B291B20F4A22F81310BB79BA790C498A5CD2B242F00202D1B2094AD15400F00FFC0346FB7100BFFB7918460837BD4680BD00BF0060004032
:403040005C84FF1F3081FF1F4084FF1F4484FF1F80B485B000AF0346FB710023FB73FF23BB7317E0FB7B104AD35C7B737A7B0F4913465B0013449B000B4408339B78DBB20C
:40308000FA799A4203D1FB7BBB730223FB73FB7B0133FB73FB7B012BE4D9BB7B18461437BD465DF8047B70473884FF1F6C84FF1F80B582B000AF0023BB71224B00221A706C
:4030C000214B00221A70204B00225A700023FB7110E0FB791D4AD35C7B717B79002B06D07B79082B03D87B791846FFF713FFFB790133FB71FB79012BEBD9154B1B78DBB2A3
:40310000002B18D0114B1B78DBB2002B13D0114B1B78DBB2002B0ED00D4B1B78DBB2082B09D80A4B1B78DBB2082B04D8094B1B78DBB2082B01D90123BB71BB7918460837BB
:40314000BD4680BDE681FF1F4084FF1F3484FF1F3084FF1F3884FF1F80B485B000AF78600023FB8102E0FB890133FB81FB897A6813441B78002BF6D1FB8918461437BD460F
:403180005DF8047B704700BF80B584B000AF78600023BB81304B1B781A46304B9B5CFB727868FFF7D9FF0346FB81FA7A2C4913465B0013449B000B4408331B889BB2FA892A
:4031C0009A420AD9FA7A264913465B0013449B000B4408331B889BB200E0FB893B81BB897A681A44F97A3B89084611461A46FFF715FEFA893B89D31AFB81FB89002B0CD1E8
:40320000FA7A174913465B0013449B000B4408331B889BB23A899A4218D1BA893B891344BB8100BFFA7A0E4913465B0013449B000B445B78DBB2002BF4D0FB89002B05D125
:40324000FB7A184600210022FFF7E8FDFB89002BABD11037BD4680BDE681FF1F3084FF1F6C84FF1F80B500AF054B1B781A46054B9B5CDBB21846FFF7BBFD0346184680BD5B
:40328000E681FF1F3084FF1F80B485B000AF78600B46FB701346BB707B68DB7803F00303FB737B689B78DBB25BB2002B1ADAFB7B032B0AD0BB7803F001031549FA78CA54A5
:4032C000BB7843F00103BB701BE0BB789B08DBB203F001030F49FA78CA54BB7843F00403BB700EE0FB7B032B0BD0BB785B08DBB203F001030849FA78CA54BB7843F0020391
:40330000BB70BB7818461437BD465DF8047B70473084FF1F3884FF1F3484FF1F80B582B000AF374B1B78BB71BB7903F01003002B63D00123FB71BB795BB2002B13DABB796A
:4033400003F00F03012B02D00023FB711DE000F061F82C4B1B78DBB2DBB25BB2002B14DA0023FB7111E0BB7903F04003002B02D000F094F809E0BB7903F02003002B02D098
:4033800000F0B2F801E00023FB71FB79002B34D01B4B1B78BB71BB795BB2002B2DDB1A4B1B78DAB2194B1B78DBB21343BB71184ABB791370164B1B78DBB2BA799A421CD1A7
:4033C000104B1B78FB710E4B1B78DBB223F07F03BB71BB79002B0AD1094B0A4A1278D2B21A70074B1B78DBB203F00F03FB71054B1B78DBB2FA799A42E2D10837BD4680BDEB
:40340000286000404A84FF1F5084FF1F6884FF1F2960004080B582B000AF1D4B1B78FB711B4AFB7913701A4B1B78FB71FB795BB2002B03DA174AFB79137025E0022000F0DE
:4034400043FA154B1B78DBB203F06003202B08D0402B0BD0002B0ED100F004FB0346FB710CE001F0F1FA0346FB7107E001F0C0FA0346FB7102E00023FB7100BFFB79002B8F
:4034800002D1044B03221A700837BD4680BD00BF286000404A84FF1F0060004080B500AF104B1B78DBB2062B19D801A252F823F0DF340000DF340000CD340000DF340000EE
:4034C000D3340000DF340000D934000000F0FAF806E000F0A9F903E000F0D2F900E000BF80BD00BFDA84FF1F80B500AF124B1B78DBB2062B1DD801A252F823F033350000A7
:403500003335000019350000333500001F350000333500002535000000F0DAF80AE000F029F907E0032000F0CFF9044B03221A7000E000BF80BD00BFDA84FF1F4A84FF1FD6
:4035400080B483B000AF0023FB71294B1B78DBB29AB2284B1B889BB213449AB2254B1A8015E02549FB79254A52681278D2B2CA54224B5B680133214A5360FB790133FB71F4
:403580001E4B1B889BB2013B9AB21C4B1A801B4B1B889BB2002B02D0FB79072BE1D9144B1B78DBB2082B02D0FB79002B0FD0144B1B78DBB283F07F03DB43DAB2104B1A7071
:4035C000104B0F221A70104B02221A7005E00D4B02221A700C4B02221A700C4AFB791370034AFB7913700C37BD465DF8047B70474B84FF1FD884FF1F006000405C84FF1F55
:403600005084FF1F4A84FF1FDA84FF1F6884FF1F80B582B000AF164B1B889BB2002B02D100F02EF81EE0134B02221A70124B00221A7000F069F9114BDB79DBB29BB21B029F
:403640009AB20E4B9B79DBB29BB21343FB80084B1B889BB2FA889A4202D2054AFB881380FFF76EFF012318460837BD4680BD00BF5C84FF1FDA84FF1F5084FF1F00600040DD
:4036800080B400AF0A4B02221A700A4B80221A70094B0F221A70094B00221A70084B00221A7001231846BD465DF8047B704700BFDA84FF1F5084FF1F4A84FF1F4B84FF1F7F
:4036C0006884FF1F80B500AFFFF73AFF80BD00BF80B500AF0A4B1B78DBB29AB2094B1B889BB213449AB2074B1A80074B00221A70012000F0E9F8054B03221A7080BD00BF4E
:403700004B84FF1FD884FF1FDA84FF1F4A84FF1F80B582B000AF124B04221A70114B80221A7000F0F1F8104BDB79DBB29BB21B029AB20D4B9B79DBB29BB21343FB800B4BD7
:403740001B889BB2FA889A4202D2084AFB881380074B0B221A70012318460837BD4680BDDA84FF1F5084FF1F006000405C84FF1F4A84FF1F80B483B000AF0023BB71234BEA
:403780001B78DBB203F00F03DBB2023BFB71FB799AB21F4B1B889BB213449AB21C4B1A8018E01C4B5B681C49BA798A5CD2B21A70184B5B680133174A5360BB790133BB7140
:4037C000FB79013BFB71134B1B889BB2013B9AB2104B1A800F4B1B889BB2002B02D0FB79002BDED10D4AFB7913700D4B1B78DBB283F07F03DB43DAB2094B1A70094B0B2289
:403800001A700C37BD465DF8047B704729600040D884FF1F5C84FF1F006000406884FF1F5084FF1F4A84FF1F80B500AF044B00221A70012000F048F8024B03221A7080BDFB
:40384000DA84FF1F4A84FF1F80B400AF084B06221A70084B06221A70074B80221A70074B00221A7001231846BD465DF8047B7047DA84FF1F4A84FF1F5084FF1F6884FF1F03
:4038800080B500AF0C4B1B78DBB2002B0AD00B4A094B1B78DBB263F07F03DBB21370064B00221A70064B00221A70012000F00CF8044B03221A7080BDDE84FF1F0860004088
:4038C000DA84FF1F4A84FF1F80B483B000AF0346FB710B4B9B68002B0CD0094B9B68FA791A70074B9B68074A128892B25A80044B00229A600C37BD465DF8047B704700BF88
:403900005C84FF1FD884FF1F80B400AF094B00221A80094B9B68002B07D0074B9B6800221A70054B9B6800225A80BD465DF8047B704700BFD884FF1F5C84FF1F80B400AFCB
:40394000104A104B1B78DBB223F00103DBB213700D4B9B7C0D4B1B7BDBB203F00303012B08D00A4BDB7BDBB283F07F03DB43DAB2064BDA73054B01225A73BD465DF8047BD8
:40398000704700BF0B600040FC5F00406C84FF1F80B400AF104A104B1B78DBB223F00203DBB213700D4B93F822300D4B1B7EDBB203F00303012B08D0094BDB7EDBB283F000
:4039C0007F03DB43DAB2064BDA76054B01225A76BD465DF8047B70470B600040FC5F00406C84FF1F80B400AF124A124B1B78DBB223F00403DBB213700F4B93F832300F4B4E
:403A000093F82430DBB203F00303012B0AD00B4B93F82730DBB283F07F03DB43DAB2074B83F82720054B012283F82520BD465DF8047B70470B600040FC5F00406C84FF1F8E
:403A400080B400AFBD465DF8047B704780B500AFFFF78EF980BD00BF80B500AF00F0E4FF80BD00BF80B586B000AF0023FB75AF4B1B78FB7100233B61AD4B00221A80FB7938
:403A80005BB2002B80F2FD80A84B5B78DBB20A2B00F2F58001A252F823F000BFD73B00007F3C00007F3C00007F3C00007F3C00007F3C0000C93A00007F3C0000493C000035
:403AC0007F3C00005F3C0000984BDB78DBB2012B0ED100F017FEB860BB685B68944A5360934B12221A80FFF793FD0346FB7571E08E4BDB78DBB2022B24D18C4B9B78DBB280
:403B0000184600F0D5FDB860BB68002B62D0BB685B68874A5360864B5B6803331B78DBB29BB21B029AB2824B5B6802331B78DBB29BB213439AB27E4B1A80FFF769FD0346E7
:403B4000FB759DE0794BDB78DBB2032B3DD10023FB73784B3B6109E03B691B78BB71BB793A6913443B61FB7B0133FB736F4B9B78DBB2FA7B9A4204D23B691B78DBB2002BEA
:403B8000EAD16A4B9B78DBB2002B0BD0674B9B78DAB2694B1B7C9A4204D1684800F0A0F9664B3B613B691B78DBB2002B12D03B691B78DBB29AB25E4B1A805D4A3B695360FA
:403BC000FFF726FD0346FB755AE000F03DFF0346FB7555E054E0FB7903F00303002B1FD0022B00D02FE0524B02221A804F4B1B79DBB203F07F02524913465B0013449B000D
:403C00000B449B78DAB24F4B1A704E4B00225A70474B4C4A5A60FFF7FBFC0346FB7512E0434B02221A80484B1B78DAB2454B1A70444B00225A703E4B424A5A60FFF7E8FC37
:403C40000346FB7500BF1BE0394B01221A80384B3E4A5A60FFF7DCFC0346FB7510E0344B01221A80314B1B79DBB21A46384B13442F4A5360FFF7CCFC0346FB7500E000BFFF
:403C80001AE12A4B5B78DBB2013B0A2B00F2138101A252F823F000BFA33D0000B73E00002D3E0000B73E0000C53C0000B73E0000B73E0000B73E0000D93C0000B73E00005F
:403CC0005F3D0000194B9B78DAB2224B1A70FFF7BBFD0346FB75EFE0144B9B787B717B79002B06D07B79013BDBB2184600F0E0FCB8607B79002B02D0BB68002B02D17B79A0
:403D0000002B2BD1114B1B78DBB27A799A4208D00E4A7B791370104B01221A70012000F0D7F9FFF791FD0346FB75C5E0006000405C84FF1F0C7B0000B47A0000E084FF1FCA
:403D40006C84FF1FE881FF1F4F84FF1F4D84FF1F5884FF1FDE84FF1F4C84FF1FACE000F00FFE0346002B1BD0564B1B793B71554B1B79DAB2544B1A703B79544AD35CDAB2A7
:403D80003B795349CB5CDBB29A4204D0514B01221A7000F06FFBFFF757FD0346FB758BE08AE0FB7903F00303012B22D0012B0DD3022B00D039E0434B9B78DBB2002B04D1F9
:403DC00000F046FD0346FB752FE02EE03D4B9B78DBB2012B0CD1404B1B78DBB223F00203DAB23D4B1A70FFF72FFD0346FB751CE01BE0344B1B79DBB2012B15D8314B9B780E
:403E0000DBB2DB43DBB22F4A1279D2B211461046324A125CD2B21340DAB2304B5A54FFF713FD0346FB75FFE700BF45E0FB7903F00303012B22D0012B0DD3022B00D039E069
:403E4000204B9B78DBB2002B04D100F093FC0346FB752FE02EE01B4B9B78DBB2012B0CD11D4B1B78DBB243F00203DAB21A4B1A70FFF7EAFC0346FB751CE01BE0114B1B791C
:403E8000DBB2012B15D80F4B9B78DBB2DB43DBB20C4A1279D2B211461046104A125CD2B21340DAB20D4B5A54FFF7CEFC0346FB75FFE700BF00E000BFFB7D18461837BD468F
:403EC00080BD00BF006000404E84FF1F4884FF1F5884FF1F4C84FF1F4F84FF1FDC84FF1FB0B58AB000AF7860314B07F114041D460FCD0FC42B682370002387F826307B6830
:403F0000002B52D07B6822221A707B68013303221A7007F10C031846FDF7D6FF022387F827303EE097F827307A68134497F8262007F128010A4412F81C2C1209D2B207F12A
:403F400028010A4412F8142C1A7097F8273001337A68134400221A7097F8273002337A68134497F8262007F128010A4412F81C2C02F00F0207F128010A4412F8142C1A70C7
:403F800097F8273003337A68134400221A7097F82630013387F8263097F82730043387F8273097F82730212BBCD92837BD46B0BDA07A000090B482B000AF0123FB7174E066
:403FC0003F4AFB791B0113440C221A70FA793D4913465B0013449B000B445B79DBB2002B1AD0FA79374913465B0013449B000B441B79DBB2DBB25BB2002B06DA324AFB7997
:404000001B0113440C229A700CE02F4AFB791B01134408229A7005E02B4AFB791B01134480229A702648F979FA79264C13465B0013449B002344DB889BB2DAB20B01034407
:404040009A711F48F979FA791E4C13465B0013449B002344DB889BB21B0A9BB2DAB20B010344DA711648F979FA79164C13465B0013449B002344DB889BB2DAB20B010344E5
:404080001A710F48F979FA790E4C13465B0013449B002344DB889BB21B0A9BB2DAB20B0103445A71FB790133FB71FB79082B87D9064BFF221A700837BD4690BC704700BFEB
:4040C000706000406C84FF1FFC5F00400A60004080B58AB000AF0346FB7100237B84002387F827304CE097F82720C44913465B0013449B000B4400221A7097F82720BF49E1
:4041000013465B0013449B000B4400229A7097F82720BA4913465B0013449B000B440022DA7097F82720B54913465B0013449B000B44083300221A8097F82720AF4913463D
:404140005B0013449B000B44083300229A7097F82720AA4913465B0013449B000B4400225A7097F82720A54913465B0013449B000B4400225A7197F82730013387F82730FC
:4041800097F82730082BAED9FB79002B16D0002387F825300EE097F82530994A0021D15497F82530974A0021D15497F82530013387F8253097F82530012BECD9924B1B78AC
:4041C000DBB2002B00F050810023FB768E4B1B78DBB2013BDBB2184600F06AFA78617B695B683B613B6907331B7803F04003002B08D0864B1B78DBB243F00103DAB2834BF6
:404200001A7007E0814B1B78DBB223F00103DAB27E4B1A707B6908337B617B691B7887F82730012387F82530B3E07B695B68FB61002387F82630A0E097F82520FB699B7892
:4042400003F07F039A4240F0908097F825206B4913465B0013449B000B4408331B889AB2FB699B889A420CD297F82520FB699888624913465B0013449B000B44083302464A
:404280001A80FB691B781A465D4B9B5CDAB2FB695B789A4269D197F82520FB699878574913465B0013449B000B4402461A7197F82520FB69D878514913465B0013449B001D
:4042C0000B4402461A70FB69DB7803F00303FB73FB699B78DBB25BB2002B1ADA97F82520FB7B012B01D1072000E00D20434913465B0013449B000B4402465A7197F825206B
:404300003E4913465B0013449B000B4401225A7019E097F82520FB7B012B01D1052000E00920364913465B0013449B000B4402465A7197F82520314913465B0013449B002A
:404340000B4400225A70FB699B790A2B03D0FB699B79022B09D197F82520FB7EF86911461A46FEF791FF0346FB76FB690833FB6197F82630013387F8263097F8262097F812
:4043800027309A42FFF458AF97F82530013387F8253097F82530082B7FF647AF7B695B68FB61002387F8253016E0FB699B7803F07F02FB691878114913465B0013449B0093
:4043C0000B44083302469A70FB690833FB6197F82530013387F8253097F8252097F827309A42E2D300F0A0F90246094B1A6000237B84012387F8273030E000BF6C84FF1F17
:404400005884FF1F4884FF1F4D84FF1F4F84FF1F5484FF1F97F82720154913465B0013449B000B447A8CDA8097F82720104913465B0013449B000B4408331B889AB27B8CE4
:4044400013447B847B8C03F001039AB27B8C13447B8497F82730013387F8273097F82730082BD7D9FFF7A6FD2837BD4680BD00BF6C84FF1F90B585B000AF874B1B78DBB266
:40448000002B00F00681844B1B78DBB2013BDBB2184600F00DF978607B6808337B607B681B78FB707B685B68BB607C4B1B78BB700023FB73E8E0BB681B78BA789A4240F009
:4044C000DD80BB78764AD35CDAB2BB685B789A4240F0D480BB689B7803F07F037B70BB68DB7803F003033B707A786E4913465B0013449B000B440022DA707A78BB6898787C
:40450000684913465B0013449B000B4402461A717A78BB68D878634913465B0013449B000B4402461A707A78BB6898885D4913465B0013449B000B44083302461A80BB681A
:404540009B78DBB25BB2002B18DA7A783B78012B01D1072000E00D20524913465B0013449B000B4402465A717A784E4913465B0013449B000B4401225A7017E07A783B78F0
:40458000012B01D1052000E00920464913465B0013449B000B4402465A717A78414913465B0013449B000B4400225A703E4A7B781B01134401229A703B4879787A78394CD5
:4045C00013465B0013449B00234408331B889BB21B0A9BB2DAB20B0103441A70324879787A78304C13465B0013449B00234408331B889BB2DAB20B0103445A702B4879788A
:404600007A78284C13465B0013449B002344DB889BB2DAB20B0103449A71244879787A78204C13465B0013449B002344DB889BB21B0A9BB2DAB20B010344DA711B48797805
:404640007A78184C13465B0013449B002344DB889BB2DAB20B0103441A71144879787A78104C13465B0013449B002344DB889BB21B0A9BB2DAB20B0103445A71BB680833EB
:40468000BB60FB7B0133FB73FA7BFB789A42FFF412AF1437BD4690BD4D84FF1F4E84FF1F5884FF1F6C84FF1FFC5F00407060004080B485B000AF0346FB71104B1B78DBB2DA
:4046C0000F4ADB0013445B68FB60FB681033FB60FB681B78FA799A4202D30023FB6005E0FB79DB00FA6813445B68FB60FB6818461437BD465DF8047B704700BFDB84FF1F97
:404700000C7C000080B400AF054B1B78DBB2054ADB0013445B681846BD465DF8047B7047DB84FF1F0C7C000080B584B000AF104B1B78DBB2013BDBB21846FFF7B9FFB860E9
:40474000BB68002B0DD0BB685B681B79FB71FB790233DB00BA681344BB60BB685B68FB6001E00023FB60FB6818461037BD4680BD4D84FF1F80B582B000AF0023FB71314B18
:404780001B79DBB203F07F03BB71BB79002B53D0BB79082B50D8BA79B9792B480B465B000B449B0003449B78DBB243F00103D8B2254913465B0013449B000B4402469A705B
:4047C000BA79214913465B0013449B000B440022DA70BA79B9791C480B465B000B449B0003445B78DBB243F00203D8B2164913465B0013449B000B4402465A70BA791249FF
:4048000013465B0013449B000B441B79DBB2DBB25BB2002B06DA0D4ABB791B0113448D229A7005E0094ABB791B01134489229A70FFF70AF80346FB71FB7918460837BD46B1
:4048400080BD00BF006000406C84FF1FFC5F004080B582B000AF0023FB71464B1B79DBB203F07F03BB71BB79002B7DD0BB79082B7AD8BA79B97940480B465B000B449B0013
:4048800003449B78DBB223F00103D8B23A4913465B0013449B000B4402469A70BA79364913465B0013449B000B440022DA70334ABB791B0113447F221A70BA79B9792E4869
:4048C0000B465B000B449B0003445B78DBB223F00203D8B2284913465B0013449B000B4402465A70BA79244913465B0013449B000B441B79DBB2DBB25BB2002B18DABA79C1
:404900001D4913465B0013449B000B445B78DBB2012B06D1194ABB791B0113440C229A701EE0164ABB791B0113440D229A7017E0BA79114913465B0013449B000B445B78ED
:40494000DBB2012B06D10D4ABB791B01134408229A7005E0094ABB791B01134409229A70FEF772FF0346FB71FB7918460837BD4680BD00BF006000406C84FF1FFC5F0040ED
:4049800080B584B000AF0023FB73154B1B79BB73144B1B78DBB2013BDBB21846FFF788FEB860BB685B681B79FB71BA7BFB799A4202D9BB7B022B0ED8BB7BBA7B0A498A5CBF
:4049C000D1B20A4AD154BB7B054A9278D1B2064AD1540123FB73FB7B18461037BD4680BD006000404D84FF1F5884FF1F4884FF1F80B483B000AF0023FB710A4B1B78DBB2BA
:404A0000DBB25BB2002B06DA064B5B78DBB2012B00D000E000BFFB7918460C37BD465DF8047B70470060004080B400AF054B1B78DBB203F040039B09DBB21846BD465DF8D2
:404A4000047B70478F45004080B582B000AF1A4B1B78DBB203F00303012B02D0022B04D012E0154B1B79BB7111E0134B1B79DBB203F07F02114913465B0013449B000B4414
:404A800008339B78BB7102E00023BB7100BF0C4B1A68BB7913441B78022B04D1FEF764FA0346FB7102E00023FB7100BFFB7918460837BD4680BD00BF006000406C84FF1F9D
:404AC0005484FF1F4278007840EA0220704700BFC278837843EA0222437843EA0223007840EA0320704700BF0170090A417070470170C1F307234370C1F307438370090E08
:404B0000C170704713462AB10A78027001300131013BF9D1704700BF01700130013AFBD1704700BF30B4451C03784C1C08781B1A013A03D028462146002BF4D0184630BC6E
:404B4000704700BF00E0013003780BB18B42FAD11846704702394369023B8B4204D94389806A01FB030070470020704770B506460D4601F11A00FFF7A5FF04463378032B2C
:404B800005D105F11400FFF79DFF44EA004070BD70B506460D46144601F11A0091B2FFF7A3FF3378032B04D105F11400210CFFF79BFF70BD2DE9F84F824689460F6800F1E5
:404BC000200B584620210B22FFF7A6FF002633464FF008085D1CFC5C202C4AD92F2C03D05C2C07D100E001357B5D2F2BFBD05C2BF9D03EE02E2C01D0464509D3B8F10B0F51
:404C00004CD02E2C4DD12B4608264FF00B08E1E704F17F03DBB21E2B04D904F12003DBB21C2B15D86B1C795DA1F14002D2B23E2A03D981F080027C2A36D808F1FF32B24266
:404C400035D9721C0BF8064002360BF80210C1E71B482146FFF776FF60BBA4F16103DBB2192B01D8203CE4B20BF8064001362B46B0E73D44C9F80050FEB19AF82030E52BBA
:404C800002D105238AF82030202C01D8042300E000238AF82B300020BDE8F88F0620BDE8F88F0620BDE8F88F0620BDE8F88F0620BDE8F88F0620BDE8F88F0620BDE8F88FC3
:404CC000147C0000016821B94FF0FF331FE0013200E00A461378202B01D93A2BF7D13A2B14D110B44C1C0B78303B092B05D8944206D143B9013202600BE04FF0FF3308E03A
:404D00004FF0FF3305E04FF0FF3302E000231846704718465DF8044B704700BF38B50C4670B1054603685BB11A784AB1D9888288914205D1587801F03FFA10F0010F03D07A
:404D400000232360092038BD2B682360002038BDF8B5C37803B30446C66A00F13007407839463246012301F075FAB8B90023E370236AF31AA269934212D2A57808E0A3697B
:404D80001E44607839463246012301F063FA013D012DF4D80020F8BD0020F8BD0120F8BD0020F8BD70B504460D46C36A8B4210D0FFF7CEFF064668B9607804F130012A4689
:404DC000012301F003FA10B101264FF0FF35E56200E00026304670BD10B504460023C3704FF0FF33C362FFF7DDFF18BB04F22E20FFF768FE4AF6552398421DD194F83030AA
:404E0000E92B05D0236B03F0FF130F4A934215D104F16600FFF75CFE20F07F400B4B98420ED004F18200FFF753FE094B984209D0022010BD042010BD032010BD022010BDD6
:404E4000002010BD002010BDEB00900046415400464154332DE9F04784B00E46174600230B60FFF72FFF051EC0F22B81AA4B53F82540002C00F02781346007F0FE072378FB
:404E800073B1607801F098F910F0010F08D1002F00F01B8110F0040F40F01981002037E100232370E8B2607001F0D6F810F0010F40F00F811FB110F0040F40F00C81204606
:404EC0000021FFF789FF022814D0002627E004EB051090F8F23100F5F7701BB10830FFF7F7FD00E0002004AB03EB850343F8100C013500E00025032DE9D9002504AB03EB74
:404F0000850353F8106C26B120463146FFF764FF00E00320012802D90135032DEED9042800F0DB80012800F2DA8004F13B00FFF7C9FDB0F5007F40F0D48004F14600FFF730
:404F4000C1FD804620B904F15400FFF7C1FD8046C4F8188094F8409084F8029009F1FF33DBB2012B00F2BF8008FB09F994F83D506581002D00F0B9806B1E1D4240F0B78094
:404F800004F14100FFF79EFD8246208110F00F0F40F0AF8004F14300FFF794FD074620B904F15000FFF794FD074604F13E00FFF789FD0346002800F09E8000EB090202EB35
:404FC0001A129742C0F09980BF1AB7FBF5F5002D00F095804FF6F5718D4201D9032700E0022740F6F5718D4200D8012702356561E661334423623244A262032F0FD104F189
:405000005A00FFF75FFD00287BD1BAF1000F7AD104F15C00FFF75CFD6062AD000EE0BAF1000F72D04B446362022F01D16D0005E005EB450305F0010505EB530505F2FF1523
:40504000B8EB552F63D34FF0FF332361E36080232371032F2CD104F16000FFF733FD012826D12046711CFFF79DFE08BB0023237104F22E20FFF726FD4AF65523984217D1C5
:4050800004F13000FFF724FD244B984210D104F50570FFF71DFD224B984209D104F50670FFF716FD206104F50770FFF711FDE0602770194A938801339BB29380E380002012
:4050C00026E00B2024E00C2022E0002020E00A201EE003201CE00A201AE0012018E00D2016E00D2014E00D2012E00D2010E00D200EE00D200CE00D200AE00D2008E00D209C
:4051000006E00D2004E00D2002E00D2000E00D2004B0BDE8F08700BFEC81FF1F52526141727241612DE9F8430C46012977D90546174643698B4274D90378022B43D0032BD5
:4051400053D0012B6FD101EB5108016A01EB5821FFF728FE0646002866D108F10109C8F3080814F001040AD005EB080393F83020FBB202F00F0242EA0313DBB200E0FBB231
:40518000A84488F830300123EB70296A284601EB5921FFF707FE0646002845D1C9F3080914B1C7F3071708E005EB090393F8303023F00F03C7F303271F43A94489F8307006
:4051C0000123EB7030E0016A01EB1421FFF7EAFD064648BB600000F4FF7030302844B9B2FFF782FC0123EB701EE0016A01EBD411FFF7D8FD0646B8B927F07047A40004F44F
:40520000FE7430342C442046FFF762FC00F0704120463943FFF76CFC0123EB7004E0022602E0022600E002263046BDE8F88300BFF8B50668012951D973698B4250D90C4608
:405240003378022B2AD0032B37D0012B4AD101EB5105316A304601EB5521FFF7A3FD002842D16F1CC5F30805354495F83050316A304601EB5721FFF795FD002837D1C7F39D
:4052800008073E4496F8300045EA002014F0010F01D00009F8BDC0F30B00F8BD316A304601EB1421FFF77EFD20BB600000F4FF7030303044FFF706FCF8BD316A304601EB7B
:4052C000D411FFF76FFDC0B9A00000F4FE7030303044FFF7FDFB20F07040F8BD0120F8BD0120F8BD0120F8BD4FF0FF30F8BD4FF0FF30F8BD4FF0FF30F8BD4FF0FF30F8BDA7
:405300002DE9F04106460C460768B1F5001F3AD211F01F0F3AD1316185681DB93B78022B00D97D6A35B93B89B3EB541F31D97B6AB3611AE0B7F80A804FEA48280EE0304613
:405340002946FFF775FF0546B0F1FF3F24D0012825D97B69834225D9C8EB04044445EED238462946FFF7F6FBB0617561B369E3B103EB5423B361C4F3080330333B44F36188
:405380000020BDE8F0810220BDE8F0810220BDE8F0810220BDE8F0810120BDE8F0810220BDE8F0810220BDE8F0810220BDE8F0812DE9F04107460668884629B9F5687DB1F3
:4053C0007369AB420ED90EE0FFF732FF01284BD9B0F1FF3F4FD0736983424CD8454602E0012500E001252C4601347369A34202D8012D3CD9022438462146FFF719FF034658
:4054000050B1012802D0B0F1FF3F02D11846BDE8F081AC42E8D12DE0304621464FF0FF32FFF780FE034640B9B8F1000F05D0304641462246FFF776FE034663B9F4603269E3
:405440007369023B9A4201D2013A3261337943F00103337105E0012B02D14FF0FF3400E001242046BDE8F0810120BDE8F0810020BDE8F0810020BDE8F08100BFF8B50746DC
:405480000E46046801292CD963698B422BD932B1204611464FF0FF32FFF744FE28BB38463146FFF7C5FE054600B3012820D0B0F1FF3F1FD0204631460022FFF733FE00B1CB
:4054C000F8BD23696269911E8B4205D201332361237943F0010323712E469542DFD30020F8BD0220F8BD0220F8BDF8BD0020F8BD0220F8BD0120F8BD2DE9F843066803694C
:4055000003F120058369002B6ED0B5F5001F6ED288460446C5F30807002F5DD101338361416941B93389B3EB551F55D8002383610420BDE8F8837389013B13EA55234BD1ED
:40554000FFF776FE8146012854D9B0F1FF3F54D07369834239D8B8F1000F04D10023A3610420BDE8F88320466169FFF721FF8146002845D0012846D0B0F1FF3F46D0304603
:40558000FFF7E6FB002844D106F1300000214FF40072FFF7C1FA30464946FFF7DBFAF0624FF000080AE00123F3703046FFF7D0FB90BB08F10108F36A0133F3627389434561
:4055C000F1D8F36AC8EB0303F362C4F8149030464946FFF7BFFAA061256107F130084644E6610020BDE8F8830420BDE8F8830420BDE8F8830220BDE8F8830120BDE8F88390
:405600000720BDE8F8830220BDE8F8830120BDE8F8830120BDE8F8830120BDE8F88300BF70B5044606680021FFF76AFE08BB3046A169FFF7B7FB0546C8B9E0690378ABB12C
:40564000C37A03F03F03A371C37A13F0080F05D104F120010B22FFF765FA40B120460021FFF74AFF05460028E1D000E00425284670BD70BD30B583B004460191056801E0F1
:4056800001330193019B1A782F2AF9D05C2AF7D00022A2601B781F2B08D8802384F82B3020461146FFF72CFE034626E0204601A9FFF780FA034600BB2046FFF7B1FF94F8E2
:4056C0002B20034628B1042817D112F0040F11D013E012F0040F10D1A37913F0100F0BD02169C1F30801303128462944FFF73EFAA060DBE7052300E00523184603B030BD90
:40570000F8B504460F4606680021FFF7F9FD0246B8B900253046A169FFF744FB024680B9E3691B78E52B00D01BB90135BD4201D107E0002520460121FFF7DEFE024600281E
:40574000E8D0042A00D107221046F8BD70B5044606680121FFF7D4FF054690B93046A169FFF720FB054660B9E06900212022FFF7D3F9E06904F120010B22FFF7C3F901231D
:40578000F370284670BD00BF70B50446FFF7E0FA0546002837D12378032B2DD12379012B2AD104F13006304600214FF40072FFF7B3F904F22E204AF65521FFF795F93046DB
:4057C0001249FFF795F904F505701149FFF790F904F506702169FFF78BF904F50770E168FFF786F9E2690132E26260783146012300F030FD00232371607800210A4600F0A0
:405800007FFD00B10125284670BD00BF525261417272416110B584B001900091144604A840F8041DFFF74EFA002816DB0E4B53F820300BB100221A70019B0BB100221A70BE
:40584000019B094A42F820304BB1012C09D1684601A90022FFF7FEFA04E00B2002E0002000E0002004B010BDEC81FF1F2DE9F0438FB00191002800F0E0800646154602F0FC
:405880003F0701A802A93A46FFF7E4FA0446002840F0CE80029B039303A80199FFF7EAFE044620B99DF93730002B00DA062415F01C0F53D044B1042C03D103A8FFF746FF33
:4058C000044647F008070BE09DF8123013F0110F03D115F0040F02D102E0072400E00824002C4BD117F0080F48D0564D0A980E302946FFF7FDF80A9816302946FFF7F8F8C3
:4059000020220A9BDA72DDF808800A9D40462946FFF72CF98146404629460022FFF738F90A981C300021FFF7E3F80122029BDA70B9F1000F22D0029BDD6A03A84946002246
:40594000FFF79CFD0446C8B902982946FFF72AFA044609F1FF33029AD3600FE074B99DF8123013F0100F06D115F0020F06D013F0010F02D102E0042400E007244CB917F086
:40598000080F01D047F04007029BDB6A33620A9B7362002C4CD1029DDDF8288028464146FFF7E4F8B06008F11C00FFF791F8F0603560EB88B380377400217174F161716160
:4059C00006F1280840464FF40072FFF7A5F817F0200F2DD0F5685DB37561029B5F897F02B1680BE03046FFF723FC0146012800D80224B1F1FF3F00D10124ED1B0CB9BD4297
:405A0000F0D8B161A4B9C5F308038BB1029F3846FFF7A0F848B100EB5522F26178784146012300F0D3FB10B902E0022400E001240CB100233360204600E009200FB0BDE860
:405A4000F08300BF000021482DE9F04F85B00446884615461F4600233B60019003A9FFF75DF9034608B9637C0BB11846A4E0237C13F0010F00F09F80E6686369F61AB54279
:405A800000F294802E4691E06369C3F30802002A76D1039AB2F80A9009F1FF3919EA532914D10BB9A06803E00198A169FFF7C0FB012803D80223637418467DE0B0F1FF3FEA
:405AC00003D101236374184676E0A061DDF80CB05846A169FFF73EF8824610B9022060746AE0CA44750A25D009EB0503BBF80A20934201D9C9EB02059BF801004146524674
:405B00002B4600F063FB10B10120607454E094F91030002B0CDAE069CAEB0000A84207D208EB402004F128014FF40072FEF7EAFF6D0233E0E269524520D094F91030002BCD
:405B40000FDA9BF8010004F12801012300F082FB18B10123637418462EE0237C03F07F032374039B587804F128015246012300F02DFB18B10123637418461DE0C4F81CA027
:405B80006169C1F30801C1F50075B54200D935462831404621442A46FEF7B4FFA84463692B4463613B682B443B60761B002E7FF46BAF002000E0072005B0BDE8F08F00BFE9
:405BC0002DE9F04F85B00446884616461F4600233B60019003A9FFF7A1F8034608B9637C0BB11846C0E0237C13F0020F00F0BB806369F342C0F0AE80DE43ABE06369C3F32A
:405C00000802002A40F08780039AB2F80A9009F1FF3919EA53291FD133B9A06840B901980021FFF7C5FB03E00198A169FFF7C0FB002800F09280012803D102236374184662
:405C400092E0B0F1FF3F03D10123637418468BE0A061A36803B9A06094F91030002B10DA039B587804F12801E269012300F0F2FA18B101236374184676E0237C03F07F032E
:405C80002374DDF80CB05846A169FEF763FF824610B90220607467E0CA44750A25D009EB0503BBF80A20934201D9C9EB02059BF80100414652462B4600F0CCFA10B101206E
:405CC000607451E0E169CAEB0101A9420BD204F1280008EB41214FF40072FEF713FF237C03F07F0323746D0227E0E369534510D06269E3689A420CD29BF8010004F1280141
:405D00005246012300F062FA18B10123637418462AE0C4F81CA06069C0F30800C0F50075B54200D935462830204441462A46FEF7E9FE237C63F07F032374A84463692B44FD
:405D40006361E268934238BF1346E3603B682B443B60761B002E7FF451AF237C43F040032374002000E0072005B0BDE8F08F00BF30B583B0044601A9FEF7D0FF0346002822
:405D80003DD1227C12F0400F39D012F0800F0CD0019B587804F12801E269012300F05AFA78BB237C03F07F0323740198216AFEF7F9FF034618BB656AEB7A43F02003EB7241
:405DC00020682946A268FEF7E3FE05F11C00E168FEF78EFE05F116000B49FEF789FE05F112000021FEF780FE0122019BDA700198FFF7CAFC0346227C22F0400222741846EB
:405E000000E0012003B030BD0000214810B582B00446FFF7ADFF034638B9204601A9FEF77DFF034608B900222260184602B010BD08B5024B9B69984708BD00BF0485FF1F17
:405E400008B5024BDB69984708BD00BF0485FF1F08B5024B1B6A984708BD00BF0485FF1F08B5084B1860FF20FFF7E2FFFF2803D0044B1B68002BF6D1FF2814BF00200120BA
:405E800008BD00BFF481FF1F08B5034B5B689847FF20FFF7CDFF08BD0485FF1F10B5094B1B689847FF20FFF7C3FF4FF4FA70FFF7D7FF18B90446FFF7E7FF00E001242046A4
:405EC00010BD00BF0485FF1F38B505460C46C8220D4B5A60FF20FFF7ABFFFF2803D10A4B5B68002BF6D1FE280BD128462146FFF7A7FFFF20FFF79CFFFF20FFF799FF012034
:405F000038BD002038BD00BFF481FF1F38B505460C464FF4FA70FFF7A3FF0346D8B12046FFF786FFFD2C13D028464FF40071FFF78FFFFF20FFF77CFFFF20FFF779FFFF2095
:405F4000FFF776FF00F01F00052803D0002302E0012300E00123184638BD00BF38B504460D4610F0800F07D000F07F0437200021FFF7F4FF012833D80C2C04D0FFF784FFEB
:405F8000FFF78CFF58B344F04000FFF751FF280EFFF74EFFC5F30740FFF74AFFC5F30720FFF746FFE8B2FFF743FF0CB1012000E09520082C00D18720FFF73AFF0C2C02D19F
:405FC000FF20FFF735FF0A24FF20FFF731FF10F0800F05D0631E13F0FF04F5D138BDFF2038BD00BFF0B40446084E00F12007354620686168A268E3680FC510342E46BC4265
:40600000F5D12068616803C6F0BC70470485FF1F08B5024B9B68984708BD00BF0485FF1F10B5FFF7F5FF064C23699847636898470A22044B5A60034B5B68002BFBD110BD3F
:406040000485FF1FF481FF1F08B5024BDB68984708BD00BF0485FF1F002840F0A58030B583B0FFF7DDFF524B1B7813F0020F03D04F4B1878C0B299E0FFF7CAFF0A2404E02B
:40608000FF20FFF7D5FE013CE4B2002CF8D100200146FFF763FF012867D14FF47A72454B5A6008204FF4D571FFF758FF01283ED109E0FF20FFF7BCFE02AB2B4403F8040C82
:4060C0000135EDB200E02546032DF2D99DF80630012B4CD19DF80730AA2B4AD1354B5B6833B1A9204FF08041FFF738FF0028F5D1304B5B68002B3ED03A200021FFF72EFF95
:4061000050B100243CE0FF20FFF792FE02AB234403F8040C0134E4B2032CF4D99DF8043013F0400F01D00C242AE0042428E0A9200021FFF713FF012802D80224A92501E073
:40614000012425461B4B5B682BB128460021FFF705FF0028F6D1174B5B6873B110204FF40071FFF7FBFE50B90AE0002408E0002406E0002404E0002402E0002400E00024B7
:406180000C4B1C72FFF780FE3CB1FFF75DFF084A137803F0FE03137002E00122044B1A70034B1878C0B201E00120704703B030BD4C81FF1FF481FF1F18B9034B1878C0B2CD
:4061C00070470120704700BF4C81FF1FB8BB38B50D461C46ABB31D4B1B7813F0010F32D11B4B1B7A13F0080F00D15202012C0BD111201146FFF7B2FED8B928464FF40071BE
:40620000FFF762FEA0B914E012201146FFF7A6FE78B928464FF40071FFF756FE18B105F50075013CF5D10C200021FFF797FE00E00024FFF729FE201C18BF012038BD04207A
:406240007047042038BD032038BD00BF4C81FF1FF481FF1F002846D170B50D4616461C46002B42D0244B1B7813F0010F3FD1224B1B7813F0040F3CD1204B1B7A13F0080FE5
:4062800000D15602012C0AD118203146FFF766FE18BB2846FE21FFF739FED8B91DE013F0060F03D097202146FFF758FE19203146FFF754FE88B92846FC21FFF727FE18B18C
:4062C00005F50075013CF6D10020FD21FFF71EFE10B102E0002400E00124FFF7D5FD201C18BF012070BD04207047042070BD032070BD022070BD00BF4C81FF1FF481FF1FDE
:40630000002840F00D8103468848007810F0010F40F0088130B585B018461446042900F2E080DFE801F0030ADE52AD00FFF7B6FD002840F0D8800124EEE009200021FFF79E
:406340000DFE002840F0D18068461021FFF7BCFD002800F0CC809DF800309B09012B10D19DF809309DF8082003EB02239DF8072002F03F0203EB024301339B0223600024C9
:40638000CAE09DF805309DF80A109DF8092003F00F0303EBD11302F0030203EB42030233DBB29DF808109DF80720920002EB91129DF8061001F0030102EB81220132093B07
:4063C00002FA03F323600024A6E0594B1B7A13F0040F21D08D200021FFF7C0FD002840F08880FF20FFF724FD68461021FFF76CFD38B9012490E0FF20FFF71AFD013DEDB25A
:4064000000E03025002DF6D19DF80A20120910239340236000247FE009200021FFF79EFD002868D168461021FFF74EFD002864D03F4B1B7A13F0020F11D09DF80A3003F0BF
:406440003F029DF80B30DB0903EB420301339DF80D209209013A9340236000245CE09DF80A30C3F384019DF80B3003F003005A0902EBC002531C01FB0333236000244BE01D
:406480002B4A127A12F0060F39D00B216A46FFF737FFB0BB9DF800309B0904D19DF80A3013F0400F2FD021686468214B1B7A13F0080F01D1490264022020FFF74FFD20BB9A
:4064C00021202146FFF74AFD08BB26200021FFF745FDF0B947F23050FFF7C2FCD8B901241AE0042418E0002416E0012414E0012412E0012410E001240EE001240CE00124C7
:406500000AE0012408E0012406E0012404E0012402E0012400E00024FFF7B6FC204603E0042070470320704705B030BD4C81FF1FF481FF1F084B5B689BB21BB1013B9BB2A2
:40654000054A5360044B1B689BB21BB1013B9BB2014A1360704700BFF481FF1F81F0004102E000BF83F0004330B54FEA41044FEA430594EA050F08BF90EA020F1FBF54EAF1
:40658000000C55EA020C7FEA645C7FEA655C00F0E2804FEA5454D4EB5555B8BF6D420CDD2C4480EA020281EA030382EA000083EA010180EA020281EA0303362D88BF30BDE4
:4065C00011F0004F4FEA01314FF4801C4CEA113102D0404261EB410113F0004F4FEA03334CEA133302D0524263EB430394EA050F00F0A780A4F10104D5F1200E0DDB02FA55
:406600000EFC22FA05F2801841F1000103FA0EF2801843FA05F359410EE0A5F120050EF1200E012A03FA0EFC28BF4CF0020C43FA05F3C01851EBE37101F0004507D54FF0E7
:40664000000EDCF1000C7EEB00006EEB0101B1F5801F1BD3B1F5001F0CD349085FEA30004FEA3C0C04F101044FEA445212F5800F80F09A80BCF1004F08BF5FEA500C50F1BB
:40668000000041EB045141EA050130BD5FEA4C0C404141EB010111F4801FA4F10104E9D191F0000F04BF01460020B1FA81F308BF2033A3F10B03B3F120020CDA0C3208DD8F
:4066C00002F1140CC2F10C0201FA0CF021FA02F10CE002F11402D8BFC2F1200C01FA02F120FA0CFCDCBF41EA0C019040E41AA2BF01EB0451294330BD6FEA04041F3C1CDAF8
:406700000C340EDC04F11404C4F1200220FA04F001FA02F340EA030021FA04F345EA030130BDC4F10C04C4F1200220FA02F001FA04F340EA0300294630BD21FA04F029464D
:4067400030BD94F0000F83F4801306BF81F480110134013D4EE77FEA645C18BF7FEA655C29D094EA050F08BF90EA020F05D054EA000C04BF1946104630BD91EA030F1EBF27
:406780000021002030BD5FEA545C05D14000494128BF41F0004130BD14F580043CBF01F5801130BD01F0004545F0FE4141F470014FF0000030BD7FEA645C1ABF194610469D
:4067C0007FEA655C1CBF0B46024650EA013406BF52EA033591EA030F41F4002130BD00BF90F0000F04BF0021704730B54FF4806404F132044FF000054FF0000150E700BFE9
:4068000090F0000F04BF0021704730B54FF4806404F1320410F0004548BF40424FF000013EE700BF42004FEAE2014FEA31014FEA02701FBF12F07F4393F07F4F81F060517C
:40684000704792F0000F14BF93F07F4F704730B54FF4607401F0004521F0004120E700BF50EA010208BF704730B54FF000050AE050EA010208BF704730B511F0004502D520
:40688000404261EB41014FF4806404F132045FEA915C3FF4DCAE4FF003025FEADC0C18BF03325FEADC0C18BF033202EBDC02C2F1200300FA03FC20FA02F001FA03FE40EAF9
:4068C0000E0021FA02F11444C1E600BF70B54FF0FF0C4CF4E06C1CEA11541DBF1CEA135594EA0C0F95EA0C0F00F0DEF82C4481EA030621EA4C5123EA4C5350EA013518BF96
:4069000052EA033541F4801143F4801338D0A0FB02CE4FF00005E1FB02E506F00042E0FB03E54FF00006E1FB03569CF0000F18BF4EF0010EA4F1FF04B6F5007F64F54074D6
:4069400004D25FEA4E0E6D4146EB060642EAC62141EA55514FEAC52040EA5E504FEACE2EB4F1FD0C88BFBCF5E06F1ED8BEF1004F08BF5FEA500E50F1000041EB045170BD5C
:4069800006F0004646EA010140EA020081EA0301B4EB5C04C2BFD4EB0C0541EA045170BD41F480114FF0000E013C00F3AB8014F1360FDEBF002001F0004170BDC4F1000444
:4069C000203C35DA0C341BDC04F11404C4F1200500FA05F320FA04F001FA05F240EA020001F0004221F0004110EBD37021FA04F642EB06015EEA430E08BF20EAD37070BD0A
:406A0000C4F10C04C4F1200500FA04F320FA05F001FA04F240EA020001F0004110EBD37041F100015EEA430E08BF20EAD37070BDC4F1200500FA05F24EEA020E20FA04F3F9
:406A400001FA05F243EA020321FA04F001F0004121FA04F220EA020000EBD3705EEA430E08BF20EAD37070BD94F0000F0FD101F00046400041EB010111F4801F08BF013CCC
:406A8000F7D041EA060195F0000F18BF704703F00046520043EB030313F4801F08BF013DF7D043EA0603704794EA0C0F0CEA135518BF95EA0C0F0CD050EA410618BF52EAC5
:406AC0004306D1D181EA030101F000414FF0000070BD50EA410606BF1046194652EA430619D094EA0C0F02D150EA013613D195EA0C0F05D152EA03361CBF104619460AD124
:406B000081EA030101F0004141F0FE4141F470014FF0000070BD41F0FE4141F4780170BD70B54FF0FF0C4CF4E06C1CEA11541DBF1CEA135594EA0C0F95EA0C0F00F0A7F875
:406B4000A4EB050481EA030E52EA03354FEA013100F088804FEA03334FF0805545EA131343EA12634FEA022245EA111545EA10654FEA00260EF000419D4208BF964244F109
:406B8000FD0404F5407402D25B084FEA3202B61A65EB03055B084FEA32024FF480104FF4002CB6EB020E75EB030E22BFB61A754640EA0C005B084FEA3202B6EB020E75EBA4
:406BC000030E22BFB61A754640EA5C005B084FEA3202B6EB020E75EB030E22BFB61A754640EA9C005B084FEA3202B6EB020E75EB030E22BFB61A754640EADC0055EA060EB7
:406C000018D04FEA051545EA16754FEA06164FEAC30343EA52734FEAC2025FEA1C1CC0D111F4801F0BD141EA00014FF000004FF0004CB6E711F4801F04BF01430020B4F187
:406C4000FD0C88BFBCF5E06F3FF6AFAEB5EB030C04BFB6EB020C5FEA500C50F1000041EB045170BD0EF0004E4EEA113114EB5C04C2BFD4EB0C0541EA045170BD41F4801194
:406C80004FF0000E013C90E645EA060E8DE60CEA135594EA0C0F08BF95EA0C0F3FF43BAF94EA0C0F0AD150EA01347FF434AF95EA0C0F7FF425AF104619462CE795EA0C0F2D
:406CC00006D152EA03353FF4FDAE1046194622E750EA410618BF52EA43067FF4C5AE50EA41047FF40DAF52EA43057FF4EBAE12E74FF0FF3C06E000BF4FF0010C02E000BFA7
:406D00004FF0010C4DF804CD4FEA410C7FEA6C5C4FEA430C18BF7FEA6C5C1BD001B050EA410C0CBF52EA430C91EA030F02BF90EA020F0020704710F1000F91EA030F58BFCD
:406D4000994208BF90422CBFD8176FEAE37040F0010070474FEA410C7FEA6C5C02D150EA013C07D14FEA430C7FEA6C5CD6D152EA033CD3D05DF8040B704700BF84461046E0
:406D800062468C461946634600E000BF01B5FFF7B7FF002848BF10F1000F01BD4DF808EDFFF7F4FF0CBF012000205DF808FB00BF4DF808EDFFF7EAFF34BF012000205DF86B
:406DC00008FB00BF4DF808EDFFF7E0FF94BF012000205DF808FB00BF4DF808EDFFF7CEFF94BF012000205DF808FB00BF4DF808EDFFF7C4FF34BF012000205DF808FB00BF31
:406E0000014B1868704700BFB081FF1F0E4B70B51E460E4C0025E41AA410A54204D056F8253098470135F8E700F018FF084B094C1E46E41AA4100025A54204D056F8253014
:406E400098470135F8E770BD687C0000687C0000687C0000707C000010B5431E0A44914204D011F8014B03F8014FF8E710BD03460244934202D003F8011BFAE7704700000D
:406E80000EB400B54FF402719CB0ADF814106FF00041049107914FF6FF711DABADF81610084953F8042B02900690086802A9019300F064F8029B00221A701CB05DF804EB34
:406EC00003B07047B081FF1F2DE9F0478E688246B3420C469046994640D38A8912F4906F3AD02568096902236F1A656905EB450595FBF3F57B1C4B449D4238BF1D465305B9
:406F00000FD5294600F030FB064698B121693A46FFF7A2FFA38923F4906343F08003A38113E02A4600F076FB064670B95046216900F0D6FA0C23CAF80030A3894FF0FF30C9
:406F400043F04003A381BDE8F08726613E4426604E466561ED1BA560B14500D24E4632462068414600F0A0FAA36800209B1BA36023681E442660BDE8F08700002DE9F0433C
:406F80009DB003938B8906461C060D4690460CD50B6953B9402100F0E7FA2860286110B90C233360CCE040236B610023099320238DF8293030238DF82A3043461C4613F831
:406FC000012B1AB9B4EB08090FD002E0252AF5D1F8E73046294642464B46FFF775FF013000F0A980099B4B4409932378002B00F0A28000234FF0FF320493079305920693E0
:407000008DF853301A9304F101084446DFF8489121784846052200F039FA08F10108049B30B1C9EB00000122824013430493ECE7D80644BF20228DF85320190744BF2B228C
:407040008DF8532022782A2A02D0079923460EE0039A0134111D12680391002ABBBF524243F0020307920792B8BF04930AE01C4622780133303A092A03D80A2000FB0121CA
:40708000F5E7079123782E2B1AD163782A2B0AD1039B02341A1D1B680392002BB8BF4FF0FF3305930CE0611C00220C4623780131303B092B03D80A2000FB0232F5E70592B4
:4070C000DFF8988021784046032200F0DFF938B1049AC8EB00004023834013430493013421781A48062204F101088DF8281000F0CDF988B1164B33B9039B073323F0070304
:407100000833039313E003AB0093304604A92A46104BAFF3008007E003AB0093304604A92A460C4B00F092F8421C074603D0099B3B44099341E7AB895B0601D4099801E05D
:407140004FF0FF301DB0BDE8F08300BF307C000000000000C96E0000267C00002C7C00002DE9F84391461F468A680B6906469342B8BF1346C9F8003091F843200C46DDF8E8
:40718000208012B10133C9F800302368990642BFD9F800300233C9F80030256815F006051CD094F843302268003318BF012392061FD5E118302081F843005A1C94F84510CD
:4071C0002244023382F8431013E03046394604F119020123C047013007D00135E368D9F800209B1A9D42F0DBDBE74FF0FF30BDE8F8833046394604F14302C0470130F4D0B0
:407200002268D9F80050E36802F00602042A08BF5D1B2269A3680CBF25EAE57500259342C4BF9B1AED184FF00009A9450ADA3046394604F11A020123C0470130D5D009F1D5
