:400000000080002011000000F5040000F5040000034A08B51268034B1A6000F085FA00BFFA460040BC76004010B5054C237833B9044B13B10448AFF300800123237010BD0F
:40004000B881FF1F0000000010660000084B10B51BB108480849AFF300800848036803B910BD074B002BFBD0BDE81040184700BF0000000010660000BC81FF1F0881FF1FF5
:4000800000000000704700BF024A13680133136005F080BAD481FF1F0120014600F0E2BFC820012100F0DEBF2DE9F047BB4DADF59C6D0024204605F0E9FB02460B4605F039
:4000C0004BFC0134B4F5805FE5E80201F2D1B44DACAC0FCD0FC42B68237001F0F3FA0028FBD0ACA801F0A2FA002004F04FFF0446AC49ACA8224605F081FE01F0E3FA0028C2
:40010000FBD0ACA801F092FA94B122AC002001F01BF8A54B0FCB84E80F0001F0D3FA0028FBD0204601F082FA0DF59C6DBDE8F087ACA89E49012204F0DDF922AC074625464E
:4001400070B39B4E0FCE0FC596E8070085E8070001F0B8FA0028FBD02046013F01F066FA0C2FD3D801A353F827F000BFE10300000D010000870300000D0100000D010000F9
:400180000D0100000D0100000D0100000D0100000D010000710300000D01000055030000844E0FCE0FC596E8070003C52A7001F089FA0028FBD0204601F038FA9DF8B0324E
:4001C000022B00F03381032B00F02281012B00F011812346784A07CA03C31A7001F072FA0028FBD025462046744E01F01FFA012000F016FE0FCE0FC596E8070085E80700B7
:4002000001F060FA0028FBD025466D4E204601F00DFA0FCE0FC50FCE0FC50FCE0FC533682B6001F04FFA0028FBD0204601F0FEF9DFF8A8914FF01008012620466149324632
:4002400005F0DCFD01F03EFA0028FBD0204601F0EDF9202E20465C494FF00A0242F2107728BF642704F07CF970BB0546D9F800A001352046494932466B4604F0C7FBBD422A
:40028000F6D1D9F800302046CAEB030504F016FD02A82A464D4905F0B1FD01F013FA0028FBD002A801F0C2F9F20007FB02F202A8B2FBF5F2454905F0A1FD01F003FA002855
:4002C000FBD002A801F0B2F920463F49012204F047F970BB0546D9F800A0013520462F49324601AB04F05AFABD42F6D1D9F800302046CAEB030504F0E1FC02A82A463349F0
:4003000005F07CFD01F0DEF90028FBD002A801F08DF9F20007FB02F202A8B2FBF5F22B4905F06CFD01F0CEF90028FBD002A801F07DF90A23ADF8083001F0C4F90028FBD014
:4003400002A801F073F9B8F101084FEA46067FF474AFDBE625461E4E0FCE0FC533682B8001F0B0F90028FBD0204601F05FF9CDE62546184E0FCE0FC533682B8001F0A2F9D7
:400380000028FBD0F0E72546134B0FCB07C52B8001F098F90028FBD0E6E700BF3084FF1F6467000078670000B46900009067000094670000F86700002C680000C4690000AD
:4003C000E0690000146A0000806900001C6A0000E4670000B0670000D4670000D481FF1F2546194B0FCB07C52B7001F06BF90028FBD0B9E7154A92E803000A0C2060ADF8A8
:400400008C108DF88E2001F05DF90028FBD0E9E60F4A92E803000A0C2060ADF88C108DF88E2001F04FF90028FBD0DBE6094A92E803000A0C2060ADF88C108DF88E2001F04C
:4004400041F90028FBD0CDE6C467000014680000246800001C68000030B54FF47A70A1B000F032FB012000F06FFE62B60020022100F032FF00F0D4FF0028FBD001F09AF832
:4004800016481749174A00F085FC174800F062FE164D052468461649224605F0AFFC01F011F90028FBD0684601F0C0F84FF47A7000F00AFB013CEDD195E807006B4603C3FF
:4004C000110C23F8022B197001F0FCF80028FBD0684601F0ABF8FFF7E7FDDAE7A10000009900000085000000890000002C6A0000246A0000FEE700BF094908B50A68094B74
:400500001044C31A802B02DC0860104608BD05F035FC0C234FF0FF320360104608BD00BF0C81FF1F3005002080B5134FF7B1134E002556F80C0C56F8084C56F8102C0346DC
:400540003CB1043A52F8041F43F8041B191A8C42F8D156F8040C1A4620B142F8045BD11A8842FAD1013F06F11006E2D105F00CFCFFF772FFFEE700BF01000000606C000042
:4005800008B5124A124B13491A600B68124A43F4007312480B600023032B94BF50F823100F490133302B42F8041FF5D10D4B0E4A18780E490E4B08701A6000F01DF800F0B1
:4005C0005BF90C4B00221A6008BD00BF0004FA050CED00E014ED00E0FC7FFF1F00000000F5040000BC7600400080FF1F0481FF1F08ED00E00081FF1F2DE9F84F72B6754E72
:40060000754A35461378002443F00403137004EB4403AA8856F813000134002105F0E5FB092C05F10605F2D16C486D49802205F0D1FB6C4E6C4F002556F8043F23F0FF0419
:4006400013F0FF0313D003F1FF3E05F1105303F135005FFA8EFE7044343340005B001A785978023383421155F9D101357544BE42E2D14BF67F375D4941F251260B785C48A7
:4006800043F002030B700378A1F5863143F00203037063390B78A0F5863043F040030B7051380178DFF890C1DFF890E10022514B41F01001504C0170CCF80020CEF8002070
:4006C000154693E8070003C44C4B4D49228007C903C34C491A800A78DFF864A14A4C4B4842F008024FF0610BDFF85881DFF858C1DFF858E10A70A3F628738AF800B018228A
:4007000006214FF0C7094FF0520BDFF844A1A8F800908CF80020AEF800702270017083F800B09AF800203A49D2B24FF4E26084F81B26384F088019241E8401E0032D0DD03C
:400740003A784FF4F07002F0010242EA450303F0030500F081F8013CF0D1FEE72E4A2F48DFF8F0E02E4E2F4D00232F494FF0070C482702244FF48078A2F8008082F800C0D5
:400780008EF80030377013702B7004700B78C12443F00303254A0B7080F8FF47137801F5A651DBB20C310EF5C35E06F5C35603EA0C001F4A1F4C08701D090EF1090E0E36C2
:4007C00044270FCA8EF80050377007C42380BDE8F88F00BF386A0000E8460040000E014058020048FCFFFF47640000480350014013500140D8020048F05100402051004065
:40080000E4020048224300408640004000430040224200402542004004400040014000400840004009400040A2430040CF010049A0430040B04300400076004008760040F3
:40084000004800408040004082400040844000400F010049064000400230800803D000BF01380046FCD17047EFF3108072B6704780F31088704700BF7F200346084910B4ED
:40088000084A802408704C70013BDBB202F80839002BF9D1044A13705DF8044B704700BF1081FF1FF87B004000780040172817D869B90C4900010B46425C034402F0DF0261
:4008C00042541A78002042F001021A707047054900010B46425C034442F020024254F0E7012070471070004017280BD8064A0301995C002001F0FE019954995C01F0DF012E
:40090000995470470120704710700040172810D810B4094A03011A441179074C41F0040111711A5D002042F001021A555DF8044B70470120704700BF1070004017280BD837
:40094000064A0001835C01F0070103F0F10343EA4101815400207047012070471070004041F6FF73994208BF4FF400519A4208BF4FF40052172808D8C00000F1804303F512
:40098000EC4399800020DA8070470120704700BF172805D8034B000103445972002070470120704710700040172809D8054B000103441A7901F00701114319710020704742
:4009C000012070471070004070B417289DF80C609DF8105018D8C00001F07F0103F00F0300F1804441EAC21143EA061304F5EC4405F00F050022C9B2DBB221706370A57012
:400A0000E270104670BC7047012070BC704700BF10B5FFF729FF0B4B5A78182A04D8FF24FFF726FF204610BD1C78013AE10001F1804101F5F04109785A701970FFF718FF63
:400A4000204610BD1081FF1F38B50306044611D4FFF70AFF084AE3005178157803F1804303F5F04301311D7051701470BDE83840FFF7FEBE38BD00BF1081FF1F10F0800F3E
:400A800011D130B411F470450AD1C40004F1804404F5F0442180A270E370284630BC7047012030BC70470120704700BF030608D4C00000F1804303F5F04399800020DA80A8
:400AC00070470120704700BFB0F5004F70B506461AD904460D4DA4F500446868FFF7BCFEB4F5004FF7D8A6F50043013B23F4FF4323F07F03A6F50046F61AA86800FB06F08E
:400B0000BDE87040FFF7A8BE004DF6E71881FF1F024B1B7803FB00F0FFF79EBE1881FF1F054B00F01F001A6800F1100352F8230042F82310704700BF08ED00E000F01F0033
:400B400000F16040490100F56440C9B20170704710B4154B154A1B781549DBB203601478023243EA042303600C78124943EA0443036012F8044C043143EA0463036011F83E
:400B8000043CDBB2436012F8064C43EA0423436009785DF8044B43EA01434360127843EA02634360704700BF0301004904010049EC46004001010049024A137803F0FE03E1
:400BC00013707047D881FF1F002000F0D9BA00BF012000F0D5BA00BF08B501F045FE400000F0060008BD00BF08B500F01DFA00F02DFA0307FBD5BDE8084000F021BA00BFAC
:400C0000F8B540F6FE734A1E9A4211D82D4E0446737873B94518FF2000F006FA00F016FA0307FBD500F00CFA04F8010BAC42F2D1F8BD8DB2244F00232946FE223079FFF7AA
:400C40001DFF46F24E42B9B23079FFF72FFF31797079FFF79DFE06232946FE22307AFFF70DFFA2B246F25E41307AFFF71FFF317A707AFFF78DFE3378FF2243F001037079E5
:400C80003A703370FFF742FE707AFFF73FFE0121707AFFF70BFE01217079FFF707FE70790121FFF781FE3378064CDA07FBD460790421FFF779FE607A0421BDE8F840FFF719
:400CC00073BE00BFD881FF1F2881FF1F40F6FE734A1E9A4212D870B52C4E0446737873B9451814F8010B00F09FF900F0AFF90307FBD500F0A5F9AC42F3D170BD70478DB21F
:400D000001232946FE223079FFF7B8FE46F24E42A1B23079FFF7CAFE31797079FFF738FE04232946FE22307AFFF7A8FE184A46F25E4192B2307AFFF7B9FE317A707AFFF70F
:400D400027FE7079FFF7E2FD707AFFF7DFFD3378012143F00103707A3370FFF7A7FD01217079FFF7A3FD70790121FFF71DFE3378064CDA07FBD460790421FFF715FE607A5E
:400D80000421BDE87040FFF70FBE00BFD881FF1F2881FF1F2DE9F0431A4C00238BB0237080468946174600F0EBF86378B3B91649164A174B174E184D184C01A8CDF81090F0
:400DC000CDF80C80099706960795059401910292089304F0C5F80BB0BDE8F0832378094D03F0FF06002BF9D12879FFF72DFE287AFFF72AFE00F0B6F800F098F800F072F814
:400E00006E70D4E7D881FF1FC90B0000D10B0000D90B0000010C0000CD0C0000E90B000038B51F4A054653789BB988B113781C4C002BFBD185B92079FFF706FE207AFFF7F0
:400E400003FE00F08FF800F071F800F04BF8657038BD0028EAD038BD124800F06DF8012001464FF4804241F6FF7300F041F8607201204FF48043014641F6FF7200F014F8FB
:400E80006071FFF7C5FD2071FFF7C2FD2072607AFFF73CFD6079FFF739FD0123637038BDD881FF1FB90B0000F0B58E4617461E4683B000230A4C012572460093019301466A
:400EC00028462570FFF780FD394632462078FFF747FD20780221FFF731FD207803B0F0BD2C81FF1F014B1878FFF7FEBC2C81FF1FF0B58E4617461E4683B000250A4C72461A
:400F00002B4601460095019528462570FFF75CFD394632462078FFF723FD20780221FFF70DFD207803B0F0BD2D81FF1F014B1878FFF7DABC2D81FF1F70B4064B064E1D68D6
:400F400006490123E024064A336028640C7070BC1360704708ED00E080E100E000E400E000E100E0034B04491B68044A012008601A64704708ED00E080E100E0F5040000E5
:400F8000F8B51F4C2378A3B11E4CFFF76DFC23781D4943F0200323700B781C4A43F010030B70137843F010031370BDE8F840FFF75FBC174B0F21174A19701378990604D50C
:400FC00015490B7813789B06FBD4FFF74DFC0D4B124F1A780F4E42F001021A701A78022502F0FE021A70FFF743FC0D480D4A202101233F783678057011702370C4E700BF9C
:40100000E481FF1F9E6400409F6400409D6400408E6400406D6400405E6400406F6400408F6400408D640040034A13785B07FCD5024B1870704700BF6F6400404E64004050
:40104000014B1878704700BF5E640040034A044B1B781078184300F0EF0070476F6400406D640040F0B5304D304E2A78338802F007029BB283424DD02D4C2478E4B242B983
:401080002BB930802B7803F0BF032B70F0BD002844D014F0010425D0264EDFF8A4C0264F0022264D4FF0010E8CF8002087F800E032702A7802F07F022A7096F86E2016072E
:4010C00029D41F4A1F4F154607263B8016702B781B4A13F00103FAD1154E357805F0FE0535701370124B1A78D5070ED56FF4687213441A460029134C14BF03210121208066
:4011000019701378DB07FCD4F0BD084A10801A7814431C70F0BD0028E4D1D2E72B7843F040032B703080F0BD8240004080400040A2430040144000401040004008400040BE
:401140000140004002400040014B1870704700BF7C64004070B4064B064E1D6806490223E024064A336068640C7070BC1360704708ED00E080E100E001E400E000E100E01F
:40118000014B1870704700BF7D640040F8B5FFF76BFB424A42491378064643F0010313700B78404C40480225012702F5E35243F001030B700B32277005701378A4F5E854A6
:4011C00003F07F03093C13700020FFF7A1FC2378364A03F0F90323701378384603F0DF03137023783B432370FFF792FC2820FFF78FFC2F4B28461A782E4F02F07F021A7014
:401200001A7802F0BF021A7023782B432370FFF77FFC2378284943F004030022237030463A700A70FFF724FB17200721FFF786FC22491720FFF774FC18200721FFF77EFC79
:401240001F491820FFF76CFC15200721FFF776FC1C491520FFF764FC28460721FFF76EFC28461949FFF75CFC03200721FFF766FC16490320FFF754FC04200721FFF75EFCA0
:4012800013490420FFF74CFC0C200721FFF756FCBDE8F8400C200F49FFF742BCA5430040B54300409D6000400960004012600040F85100408460004085600040ED1D0000AB
:4012C00029170000E91D00003D1D0000711D0000A91D0000F11D00002DE9F84F284D82462B780C461BB9FFF751FF01232B702549DFF8B0B024480023244ADFF8AC90DFF8F8
:40130000AC80DFF8ACC0DFF8ACE0214F81F800A04FF400068BF800304FF0807503704FF4001A04214FF0080B102089F8003088F800308CF800308EF800303B70166015604A
:40134000C2F800A01160C2F800B0106094B1114A137843F0010313700F4B10498022032008701A700120FFF777FA0D4B04221A70BDE8F88F074A137803F0FE031370EBE788
:40138000E581FF1FDB0400204C04002000E100E04B04002009600040086000402860004012600040DA0400204D0400204E040020DE0400204F0400202DE9F043DFF850C0B9
:4013C000DFF85090DFF85080DFF850E00B4F0C4E0C4D0D480D4A00230324802189F8003088F800308CF800308EF800303B7033702B7004701170BDE8F08300BFDE04002062
:401400004F0400204B04002028600040086000404D040020DA0400204C0400204E040020014B1878704700BF4D040020034B00EB400003EB80035878704700BF6C04002086
:40144000431E072B35D8F0B545001A4E2C1806EB8404E3889BB2C3F500739A4224D8164F2B18BC4606EB8303DC784FEA001E44EA12247744D3B20EF80C407B7059B152B148
:40148000531E0E4C9BB20B447444013911F8012F99422272FAD1284406EB8006002373707379DBB2BB70F0BDE288C2F5007292B2D5E770476C040020FC5F004070600040A1
:4014C000431E072B0CD8074B00EB400203EB820300225A705A79044B0001D2B203449A70704700BF6C040020FC5F004010B42A4B2A48197903782A4A03EB430302EB83032B
:401500009C7ACBB2A34239D0417801EB410102EB81020832927893420CBF0123FF231E490A7812F0800F4A7822D1D2B2202A0ED0222A1FD18A781B481B4920F81320CA5C58
:4015400042F00202CA545DF8044B00F0DFBB17491748C3EBC3020A440724134904804260CA5C42F00102CA545DF8044B00F0A0BB212A05D000205DF8044B70470023CEE7E1
:401580000A490B4AC3EBC3030B445DF8044B07211180536000F098BA00600040380400206C04002044040020400400203081FF1F5C04002010B5184A0023184C13705370D3
:4015C00020781749C0B2421E072A0B7020D96078C0B2431E072B18D9124B1A780AB9012010BD22780D49002AF9D00F4A10780028F5D01B78082BF2D80B78082BEFD81078C8
:40160000082894BF0020012010BDFFF759FFE3E7FFF756FFDBE700BF4004002034040020E681FF1F30040020380400202DE9F843214B224A1B780478D75C8046FFB234B17D
:4016400000240134A4B218F80430002BF9D11C4B07EB470503EB85054FF000092B899BB29C4219D92B8938469EB2A41B324608EB0901A4B2FFF7E4FEE4B14E441FFA86F9A9
:401680006B78002BFCD0002CE8D1384621462246BDE8F843FFF7D4BE384608EB09012246FFF7CEFE2B899EB2B44201D0BDE8F8830024E2E73446F5E7E681FF1F300400200A
:4016C0006C040020024B034A1B78D05CFFF7AEBEE681FF1F30040020C37890F9020003F00303002809DB032B05D00C48C2F34003C15442F0020210467047032B07D00848FF
:4017000002F0010342F00102C154104670470548C2F38003C15442F00402ECE7340400203004002038040020F8B5554A1378DBB2D90609D51F0608D403F0400202F0FF0067
:40174000002A4CD19C062CD4F8BD03F00F03012BFAD11378DBB213701378DBB21E0600F18481484B9A6842B199680220464A087099681088002248809A60444B1B7803F0BD
:401780006003202B00F06E81402B00F06881002B00F05E813E4903230B700B781D0627D5F8BD3C4A1378DBB2042B00F01F81062B59D0022B1CD1384B334C1D782388314952
:4017C0002B449BB2238010708B68002B47D08B6801221A708B6822885A8088603FE02D480278D2B2042A2DD0062A21D0022A5FD0234A13781B0600F1F8802849284B1B78A4
:401800000878284903430B70097899429CD120490C460B781078DBB2000605D42378DBB21370137803F00F0308788342F1D1F8BD1D4B1A7832B11A781C4C42F08002002158
:401840002270197000220F4B0270996839B1996801240D480C709968008848809A600C4903230B70C4E7074B9A68002AF7D09A680324054914709A68098851809860EEE720
:40188000286000405C040020D8040020006000404A040020DA0400204B040020680400205004002029600040DE040020086000407D4D7E4C7E4B26782988314489B22980F1
:4018C000198889B2002900F0D6805968794D0978C9B229705968013159601988013989B21980198889B2002900F0C28059680978C9B269705968013159601988013989B297
:401900001980198889B2002900F0BF805A681278D2B2AA705A6801325A601A88013A92B21A801A8892B2002A00F0AD805A6811781A46C9B2E9705968013159601988013953
:4019400089B219801B889BB2002B00F0A08053681B78DBB22B715368013353601388013B9BB2138013889BB2002B00F0928053681B78DBB26B715368013353601388013B53
:401980009BB2138013889BB2002B00F0848053681B78DBB2AB715368013353601388013B9BB2138013889BB2002B76D053681B78DBB2EB715368013353601388013B9BB29A
:4019C000138013889BB2002B69D0237808233A4D3A492A780F2782F0800202262A700F700670374A1370237002E7F8BD354B2E4C1978228801F00F010239C9B20A4492B202
:401A00002B4B22801A8892B2AAB1F9B1294C00E0E1B15D68225C0139D2B22A705A68C9B201325A601A880130013A92B21A801A8892B2002AECD1224B1F4A197013781F49EC
:401A400083F080030B2013700870D1E60021F2E700F0EAFC00283FF49DAE18499DE600F0F1FEF7E700F006FFF4E714490B7094E601232278ABE72378082B12D00B460F49B1
:401A80000A700270ADE70323F3E71346F1E70423EFE70523EDE70623EBE70723E9E70823E7E70B4693E700BFD80400204B0400205C04002000600040500400204A04002097
:401AC0006804002029600040714AF0B513889BB2002B00F0B0806F4C6F4D704E0221002321702B703380916819B191680B7091684B806B49664FC8798B79118843EA002312
:401B000089B28B42674838BF3B8007783188604B394489B23180128892B2002A00F09F8059685F4A0978C9B211705968013159601988013989B21980198889B2002900F0A2
:401B4000978059680978C9B251705968013159601988013989B21980198889B2002900F0898059680978C9B291705968013159601988013989B21980198889B200297BD00E
:401B800059680978C9B2D1705968013159601988013989B21980198889B200295CD059680978C9B211715968013159601988013989B21980198889B200295FD0596809788B
:401BC000C9B251715968013159601988013989B21980198889B2002952D059680978C9B291715968013159601988013989B21980198889B2002945D059680978C9B2D171F3
:401C00005A6801325A601A88013A92B21A801B889BB2002B38D0037808232A78224E82F080020F2702212A70377021701F4A137003700120F0BD174F174D1B4819491B4A1F
:401C40004FF0020E80260F2487F800E02E7004700B7013700120F0BD04230278DDE70378082B13D01049134602220A702270DDE70123F2E70223F0E70323EEE70523ECE774
:401C80000623EAE70723E8E70823E6E71346C4E75C040020DA04002050040020D8040020006000404B0400204A0400206804002070B41049104D1148042680240022104BC0
:401CC0002E7004700A80996819B199680A7099684A800C4A0A4CD0799279198842EA00238AB2934238BF2380074B0B221A70012070BC7047D8040020DA0400205004002021
:401D00005C040020006000404A04002070B40748074E084C084A0623802500210370337025701170012070BC704700BFDA0400204A040020500400206804002009490A48B9
:401D40000A780A4B02F0FE020A70827C1A7B02F00302012A03D0DA7B82F08002DA7301225A7370470B600040FC5F00406C0400200A490B480A780B4B02F0FD020A7090F814
:401D800022201A7E02F00302012A03D0DA7E82F08002DA7601225A76704700BF0B600040FC5F00406C0400200C490D480A780D4B02F0FB020A7090F8322093F8242002F0F1
:401DC0000302012A05D093F8272082F0800283F82720012283F82520704700BF0B600040FC5F00406C040020704700BFFFF7E4BA00F032BD4F4B50491B78504A0978013B21
:401E000002EBC1025268DBB2117C994240F2828002EBC3035B694A491A7A0878DB68C0B2002A00F08680511EC9B202312DE9F04703EBC101434D444E083300274FF0010E30
:401E400002E008338B4263D013F8082C8242F8D12A5C13F8074C9442F3D113F8062C13F805CC02F07F024FEA420808EB020906EB8904E77013F806AC0CF0030C84F804A031
:401E800013F805AC06F829A033F8049CA4F8089013F9069CB9F1000F3FDBBCF1010F0CBF4FF0050C4FF0090C84F805C06770DFF8A0C04FEA0219CC4442448CF802E006EB63
:401EC0008202B2F80880214CC8F307288CF80080B2F808804C445FFA88F88CF80180B2F806C008335FFA8CFC84F806C0B2F806C08B42CCF3072C84F807C0B2F806C05FFA28
:401F00008CFC84F804C0D288C2F3072262719BD1BDE8F08700231B7AFFDEBCF1010F0CBF4FF0070C4FF00D0C84F805C084F801E0BDE770474D040020DB040020846A000028
:401F40004E040020580400206C04002070600040FC5F00402DE9F047044688B04B4E03AD0FCE0FC533682B70002C00F08B80222203232270637001A8FEF7EAFD9DF80470B5
:401F80009DF805609DF806009DF807209DF808300DF1200907F00F0C06F00F0800F00F0502F00F0103F00F0E09EB1212CE4409EB1313CC4409EB1717C84409EB16164D4474
:401FC00009EB1010494417F8147C16F8146C15F8145C10F8140C11F8149C12F814AC13F8141C1EF8142C1CF814CC18F8148C0023A770A6712573A072A17484F804C084F8EA
:40200000088084F8109084F80EA0E3706371E3716372E3726373E3736374E37422759DF809009DF80A109DF80B200DF1200E00F00F0701F00F0602F00F050EEB10100EEBDF
:4020400011117744764475440EEB121216F8146C17F814EC12F8142C10F8147C11F8140C15F8141C6375E3756376E3766377E37784F8213084F818E0A7752677A07684F8EC
:402080002010A27708B0BDE8F08700BF706A00002DE9F04FC94D00232B7085B0AB70EB702B81AB726B706B712B73AB73EB73AB82AB756B736B742B76AB76EB762B8485F8A3
:4020C00022306B766B7785F8243085F8263085F82730AB8585F82E3085F8253085F8293085F8303085F8323085F833302B8785F83A3085F8313085F8353085F83C3085F845
:402100003E3085F83F30A5F8443085F8463085F83D3085F8413085F8483085F84A3085F84B30A5F8503085F8523085F8493085F84D3085F8543085F8563085F85730A5F8D4
:402140005C3085F85E3085F8553085F8593085F8603085F8623085F86330A5F8683085F86A3085F8613085F8653028B19449954A0B7013704B705370934B1B78002B00F08B
:402180003781914B914A1B7891491278013B01EBC2025268DBB2117C994240F223814FF0000C604602EBC3035B698A4A01935B680126DB79DFF8089213F0400F137814BF19
:4021C00043F0010303F0FE031370019A92F808A0D4680AF1FF33DBB203933344DB005FFA86FBBAF1000F00F00E8106EB46084FEA8808E71802E00834BC423BD0A17801F03B
:402200007F0EB645F7D105EB080CBCF808E0A2881FFA8EFE964538BFACF80820227894F801E019F802209645E5D105EB08021171E17805F8081094F902E0E178BEF1000F06
:4022400001F00301C0F2D78001290CBF05210921517100215170A27902F0F702022ACAD102465946204608340293FFF735FABC42029BC3D1019AD2680136092E1446AED11C
:40228000BAF1000F12D00398023002EBC000083212F8063C12F8081C03F07F0303EB4303083205EB830382429972F1D1464B474A1B7847491278013B01EBC2025268DBB268
:4022C000117C994200F2A180002200236B82AB8A414899B201F001030B4499B2E9832B8C02600B449BB203F0010213449AB26A85AB8D012113449BB203EA010213449AB25F
:40230000EA862B8F0C2413449BB203EA010213449AB2A5F84220B5F84430802613449BB203EA010213449AB2A5F84E20B5F85030082713449BB203EA010213449BB2A5F8D3
:402340005A30B5F85C2013449BB203EA010213449BB2A5F86630B5F868301CE0007910F0800F1E4814BF00F80E4000F80E700B4405EB8303D8880131C0B29071D8880929A5
:40238000C0F30720D071D888C0B21071DB88C3F30723537129D0124A4FEA011E4B0072445818147005EB800090F805C0BCF1000FD4D10A4800F80E60D9E700BF6C04002021
:4023C00058040020480400204D040020DB040020846A00004F04002054040020FE5F00407060004000235B68FFDE0E4BFF221A7005B0BDE8F08F01290CBF07210D21517152
:402400000121517027E7224636E702EBC3035B692BB15A68127903EBC2035A6955E71A4653E700BF0A60004070B5A44AA44C13780021DBB221801906527816D4013A0A2AB2
:4024400011D8DFE812F064001000C30010009700100010001000A00010002D00974B1A79012A40F27981002070BD0A2AFBD801A151F822F0F5260000672400006724000071
:40248000672400006724000067240000552600006724000045260000672400002F260000864B8848884C1A79884903782478013B01EBC4014968DBB20C7CD2B29C4240F2F3
:4024C000388101EBC3035B695B681B799342C0F02C817F4D7F4CAB5C7849DBB2A3548B787D4EDBB2AB540B790A79DBB2D2B23270E25CEB5C9A4206D0784B01221A7003780B
:40250000002B40F01981BDE87040FFF7FFBB03F00303012BA2D0C0F03681022BA3D1674A937803F0FF01002B9DD1137903F07F035A1E072A97D86A4A03EB430002EB80024D
:402540009078684C00F0FE009070D17021461B017F251D555078194400F0FD00507010795378020600F14E81012B0CBF082309238B70C8E7514B5C4A9B78DBB21370BDE8E7
:402580007040FFF7C3BB4D4B9B7803F0FF028BB14D4B4E491878531E01EBC0014968DBB2087C98427FF65FAF01EBC3035B69002B3FF459AF434B19788A42A4D00121474C30
:4025C00008461A702170FFF763FD9CE703F00303012B3FF443AFC0F0E480022B7FF443AF364A937803F0FF01002B7FF43CAF137903F07F035A1E072A3FF635AF384A03EB6F
:40260000430002EB800290781B0140F001009070D170517841F002015170127912F0800F304A1A4414BF8D23892393706BE70122224B22801B79264A13446360BDE8704077
:40264000FFF742BA1F4B012222806360BDE87040FFF73ABA194BDA78012A00F08680DA78022A00F0B080DA78032A40F0A8809A78002A00F0D2801D4A117859B119460023F1
:4026800001E0107830B1157801338878DBB298422A44F6D8094B997829B115499B78097C994200F0B5801378002B3FF4DCAE137823806260BDE87040FFF706BA0060004029
:4026C0005C0400204D040020DB040020846A000058040020480400204E0400204C0400206C040020FC5F0040DE040020EC6A0000D06B000013F0030321D0022B7FF4B3AE79
:40270000474A23801379474A03F07F0303EB430302EB83039A78444BD2B200211A7059706360BDE87040FFF7CFB9022A7FF6D1AE99E600235B68FFDEFFF75CFBE3E6022162
:402740003A4A21801178384AC9B2117053706260BDE87040FFF7B8B998781B793449DBB2CA5C22EA0002CA54CDE6324A324B1178122203EBC1035B685B6863602280BDE841
:402780007040FFF7A1B9264B9B78012B7FF46BAE264A137803F0FD031370BDE87040FFF7B5BA1F4B9B78012B7FF45DAE1F4A137843F002031370BDE87040FFF7A7BABDE88B
:4027C000704000F057B81B499B781B4A0978DBB202EBC1025268117C99427FF644AE02EBC3035B69002B3FF43EAE5B6863606368DA7863689B7843EA02232380BDE870407B
:40280000FFF762B9012B0CBF0C230D238B707AE60A48FFF79FFB094A45E7094A3AE700BF006000406C040020E881FF1F4F040020DC040020DB040020846A0000E004002027
:40284000EC6A0000034B00201A78120648BF5B78704700BF00600040024B1878C0F38010704700BF8F450040014B1878704700BF6C640040124A137803F00303012B1BD0F7
:40288000022B07D000230F4A1268D35C022B11D00020704713790C4A03F07F0303EB430302EB83030833074A9B781268DBB2D35C022BEDD1FEF71ABE1379DBB2E3E700BFDD
:4028C00000600040540400206C040020F8B5C46A00F130070546224639464078012302F085FCB0B92A6AAB69A21A9A42E8700ED2AE78012E01D80AE0AB691C44013E224698
:4029000068783946012302F071FC012EF4D10020F8BD0120F8BD00BF70B54FF0FF360023B14204460D46C370C66208D0407804F130012A46012302F0DFFB60B9E5624AF6FA
:40294000552294F82F1294F82E3243EA0123934204D0032070BDE662042070BD94F83030E92B07D0236B184A03F0FF13934201D0022070BD94F8692094F8683094F8671047
:4029800043EA022394F8662041EA032342EA03230E4A23F07F43934213D094F8843094F8851094F8832043EA012194F8823042EA0122074843EA0223834214BF0220002044
:4029C00070BD002070BD00BFEB00900046415400464154332DE9F041C56A04468D420E4632D0C37800F1300873B9324641466078012302F081FB00281ABF4FF0FF360120C6
:402A00000020E662BDE8F081414640782A46012302F0ECFBA8B9226AA369AA1A9A42E070E3D2A778012F01D8DFE7A3691D44013F2A4660784146012302F0D8FB012FF4D186
:402A4000D3E70120BDE8F0810020BDE8F08100BF2DE9F84FC378044663B92378032B2CD0002160780A4602F031FC003018BF0120BDE8F88FC56A00F130072A4639464078F3
:402A8000012302F0B3FBA8B9226AA369AA1A9A42E070E2D2A678012E01D8DEE7A3691D44013E2A4660783946012302F09FFB012EF4D1D2E70120BDE8F88F2579012DCFD141
:402AC00004F13007384600214FF4007203F08DF92669E068E3694FEA16694FEA104C4FEA106E4FEA102884F81C0255205A1C4FEA162B2B464FEA164A394684F81862522550
:402B00006126412784F81B9284F82E024FF07209AA2084F82F0284F819B284F81AA284F81D8284F81EC284F81FE2E26284F8305084F8315084F8326084F8176284F83370CE
:402B400084F8167284F8149284F81592607802F04DFB0023237183E72DE9F04100230B60056884B03DB32E78202E09D93A2E22D02C4601E03A2B1BD014F8013F202BF9D838
:402B8000C54E3568DDB10D602B7802F0FE0423B1687802F0A7FAC30715D500202870687002F0F4F9C70719D5032004B0BDE8F0816B1C9C4224D00B2004B0BDE8F0810C2046
:402BC00004B0BDE8F081002C00F0E68000F0040303F0FF00002BE8D00A20E6E70CB14107FAD400224FF0FF34EA70EC62687805F13001012302F080FA38B1EC620120D4E70D
:402C0000302ED8D102350560BAE74AF6552295F82F1295F82E32E86243EA0123934200F0BD800D20C1E795F8683095F8691095F8672043EA012195F8663042EA012243EA3F
:402C40000223964A23F07F43934211D095F8843095F8851095F8832043EA012195F8823042EA01228E4943EA02238B4240F0A280002495F83C2095F83B3043EA0223B3F50D
:402C8000007FCED195F8471095F8463053EA01210DD195F8571095F8562095F8553042EA012295F8541043EA022341EA032195F84000A961431E012BA870B2D895F83D30E8
:402CC00000FB01F09AB26A81002AAAD05A1E1A42A7D195F8412095F8427042EA07273A072F819ED195F844E095F8432052EA0E220DD195F8522095F853C095F851E042EA66
:402D00000C2C95F850204EEA0C2E42EA0E2295F83FC095F83EE05EEA0C2C82D00CEB171E86447245FFF47DAFCEEB0202B2FBF3F3002B3FF476AF4FF6F572934200F2D18024
:402D400040F6F572934200F2AF80023304EB0C02A6446B612A62C5F828E0EC61002F3FF460AF03F0010404F2FF1403EB430304EB53030244B1EB532F6A62FFF452AF4FF0EC
:402D8000FF3380222A712B61EB600122B3882A7001339BB2B380EB80002006E795F83030E92B3FF440AF2B6B3E4A03F0FF1393423FF439AF95F8F2216AB195F8F83195F875
:402DC000F91195F8F72143EA012195F8F63142EA012243EA022295F8023200926BB195F8083295F8091295F8072243EA012195F8063242EA012243EA022395F812220193E3
:402E00006AB195F8183295F8191295F8172243EA012195F8163242EA012243EA022295F8223202926BB195F8283295F8291295F8272243EA012195F8263242EA012243EA98
:402E40000223009C039304BB019CBCB9029C74B9039C002C3FF4E5AE28462146FFF75CFD01287FF606AF04287FF4DBAEC6E628462146FFF751FD0128EAD8FAE628462146CA
:402E8000FFF74AFD0128E1D8F3E628462146FFF743FD0128D8D8ECE6EC81FF1F4641540046415433EB009000023304EB0C02A6446B612A62C5F828E0EC61002F3FF4B1AE2E
:402EC0005B0003F2FF130244B1EB532F6A62FFF4A8AE4FF0FF3380222A712B61EB60022254E795F85B8095F85A0004EB0C020233A6442A6250EA08226B61C5F828E0EC61DA
:402F00007FF48FAE002F7FF48CAE95F85E2095F85FE095F85D0042EA0E2E9B0095F85C2040EA0E2003F2FF1342EA0022B1EB532F6A62FFF476AE95F8611095F860304FF030
:402F4000FF3243EA0123012B4FF080012A61EA60297101D0032219E7611C2846FFF73AFD0028F7D14AF6552295F82F1295F82E322F7143EA01239342ECD195F8323095F805
:402F8000331095F8312043EA012195F8303042EA01221A4943EA02238B42DBD195F8163295F8171295F8152243EA012195F8143242EA0122124943EA02238B42CAD195F8D5
:402FC0001A2295F81E3295F81B7295F81F4295F8190295F81D1242EA072743EA042495F8182295F81C3240EA072041EA042142EA002243EA01232A61EB60ABE7525261410D
:40300000727241612DE9F84F03780446022B0D46164600F0AA80032B73D0012B02D00220BDE8F88F076A01EB5108D0F82CB007EB5829D94500F04581C27800F13007002A08
:4030400040F0FD80394660784A46012302F054F8002840F01681CB46276AC4F82C9008F1010A15F00105C8F30808A04400F00F8198F83020F3B202F00F0207EB5A2742EAEC
:4030800003134F454FF0010288F83030E27000F01A8104F13008414660784A46012302F0A5F8002840F0F080226AA369C2EB09029A42E07012D294F80290B9F1010F01D8BF
:4030C0000CE0A3699B4409F1FF395A4660784146012302F08BF8B9F1010FF2D1414660783A46012302F008F8002840F0CA80E762CAF3080A002D00F0D580C6F30716A244D5
:40310000D8E0036AD0F82CA003EBD118D0450FD0C37800F13007002B6ED1394660784246012301F0E9FF002840F0AB80C4F82C80AD0005F4FE7505F130032344DA7826F066
:403140007046120602F07042164325444FEA162E370C310E012285F8306083F801E09F70D970E2700020BDE8F88F036AD0F82CA003EB1128D0450DD0C37800F13007C3B9A1
:40318000394660784246012301F0B6FF002878D1C4F82C806D0005F4FF756119C6F30722012381F8306081F83120E3700020BDE8F88F394640785246012302F017F80028A5
:4031C00062D1226AA369C2EB0A029A42E070D7D294F80290B9F1010F01D8D1E7A3699A4409F1FF39524660783946012301F0FEFFB9F1010FF2D1C3E73946407852460123D6
:4032000001F0F4FF00283FD1226AA369C2EB0A029A42E07081D294F80290B9F1010F01D87BE7A3699A4409F1FF39524660783946012301F0DBFFB9F1010FF2D16DE7394645
:4032400040785A4601F0D2FFF0B9226AA369C2EB0B029A42E070BFF4F5AE94F802A0BAF1010F01D8EEE6A3699B440AF1FF3A5A4660783946012301F0B9FFBAF1010FF2D1C0
:40328000E0E64FF0FF33E3620120BDE8F88F07EB5A2701234F4588F83060E3707FF4F9AECAF3080AA2449AF83030C6F3032623F00F031E4301238AF83060E3700020BDE840
:4032C000F88FCB46CBE6CAF3080A16E701296CD92DE9F84F4369994208D203780446022B0D464AD0032B62D0012B02D00120BDE8F88F026A01EB5109D0F82C8002EB592AEC
:40330000C24500F0F580C27800F13006002A40F0D080314660785246012301F0EDFE00283ED15746226AC4F82CA0C9F3080309F1010902EB592B2344D34593F830800ED073
:40334000E37804F13006002B40F0D480314660785A46012301F0D0FE10BBC4F82CB0C9F308094C4494F83000EB0748EA00204CBF0009C0F30B00BDE8F88F076AD0F82C9093
:4033800007EB11274F453ED0C37800F13006002B46D1314660783A46012301F0ADFE88B34FF0FF30E062BDE8F88F01207047076AD0F82C9007EBD1174F450DD0C37800F1B3
:4033C0003006002B52D1314660783A46012301F093FE0028E4D1E762A90001F4FE7101F130032344DD7898785A780C4494F8303040EA052042EA002043EA002020F07040FA
:40340000BDE8F88FE762690001F4FF7163181C4693F8303094F8310043EA0020BDE8F88F314640784A46012301F0E0FED0B9226AA369C2EB09029A42E070AAD294F802800A
:40344000B8F1010F01D8A4E7A369994408F1FF384A4660783146012301F0C8FEB8F1010FF2D196E74FF0FF30BDE8F88F314640784A46012301F0BAFE0028F3D1226AA369B9
:40348000C2EB09029A42E0709DD294F80280B8F1010F01D897E7A369994408F1FF384A4660783146012301F0A1FEB8F1010FF2D189E731464078424601F098FE0028D1D1FB
:4034C000226AA369C2EB08029A42E070BFF421AFA778012F01D81CE7A3699844013F424660783146012301F081FE012FF4D110E757461AE7314660785246012301F076FE16
:403500000028AFD1226AA369C2EB0A029A42E070BFF41CAF94F802A0BAF1010F01D815E7A3691F440AF1FF3A3A4660783146012301F05CFEBAF1010FF2D107E72DE9F04F88
:4035400085B0834601910768002940F0FA80FE687B69CEB90126344601349C4218D3012E40F2EB80DBF8005002246B69A34207D92B78022B00F0BB80032B5ED0012B0CD0FC
:40358000012005B0BDE8F08F9E4228BF0126E2E7012CDBF80050F3D9E7E72A6A04EB5401D5F82C8002EB512AD045009112D0EA7805F1300C002A40F0D280614668785246D0
:4035C000012301F099FD002840F0B1802A6A0099C5F82CA0C1F308032B44013102EB512893F83030C2450091029310D0EB7805F1300C002B40F0408161466878424601233F
:4036000001F07AFD002840F09280C5F82C80009BC3F3080A5544029B95F8300043EA0020E3074CBF0009C0F30B0098B30128A8D0B44200F082807B698EE72B6AD5F82C90A5
:4036400003EBD418C8450FD0EB7805F1300C002B40F09380614668784246012301F04CFD002864D1C5F82C80A30003F4FE7303F130022A44D07891781D44527895F8303046
:4036800041EA002042EA002043EA002020F070400028CBD17B69A3427FF672AF384621464FF0FF32FFF7AEFC002840F0E180019B7BB1012B1A467FF663AF7B699A42BFF447
:4036C0005FAF114638462246FFF79CFC002840F0CF807A693B69023A9342FC6001D2013B3B613B79204643F001033B7149E72B6AD5F82C9003EB1428C8450DD0EB7805F1F3
:40370000300C002B66D1614668784246012301F0F3FC60B9C5F82C80630003F4FF73EA1892F8303092F8310043EA00207DE74FF0FF30E86205B0BDE8F08F002005B0BDE827
:40374000F08F3846FFF7C2FD01287FF619AF421C0ED07B699842FFF414AF019EFBE6614668784246CDF808C001F040FD00285CD04FF0FF3005B0BDE8F08F614668784A4685
:403780000123CDF800C001F031FD0028F0D12A6AAB69C2EB09029A42E870DDF800C0BFF459AF95F802A0BAF1010F7FF653AF0094644600E0AB6999440AF1FF3A4A46687860
:4037C0002146012301F012FDBAF1010FF2D1A446009C3FE7614668784A460123CDF800C001F004FD0028C3D12A6AAB69C2EB09029A42E870DDF800C085D295F802A0BAF14C
:40380000010F80D90094644600E0AB6999440AF1FF3A4A4668782146012301F0E7FCBAF1010FF2D1A446009C6DE72A6AAB69C2EB08029A42E870DDF808C0BFF4BEAE95F8D9
:403840000290B9F1010F7FF6B8AE0294644600E0AB69984409F1FF39424668782146012301F0C4FCB9F1010FF2D1A446029CA4E601287FF485AE7BE7614668785246012338
:40388000CDF80CC001F0B2FC00287FF471AF2A6AAB69C2EB0A029A42E870DDF80CC0BFF4ABAE95F80290B9F1010F7FF6A5AE0394644600E0AB699A4409F1FF39524668787D
:4038C0002146012301F092FCB9F1010FF2D1A446039C91E62DE9F04F8668002383B00361D0F800808EB998F80030022B08D8B8F80830002B40F0B880022003B0BDE8F08F74
:40390000D8F82430002BF2D01E46B8F80A30002B40F0248107464446012EEDD96369B342EAD92378022B46D0032B6ED0012BE3D1226A06EB560AD4F82CB002EB5A25AB45CD
:403940000FD0E27804F13009002A40F0E080494660782A46012301F0CFFB00287DD1226AE562CAF3080323440AF1010A02EB5A2993F830304D4500930FD0E37804F1300C07
:40398000002B40F0F880614660784A46012301F0B3FB002861D1C4F82C90CAF3080A5444009A94F8303042EA0323F2074CBF1E09C3F30B061FE0256AD4F82CB005EB1625FE
:4039C0005D450DD0E37804F1300A002B7BD1514660782A46012301F08FFB00283DD1E562760006F4FF76A3191C4693F8303094F8316043EA0626012E7FF67EAFD8F8143003
:403A0000B3427FF679AF3C6886E7256AD4F82CB005EBD6155D450BD0E37804F1300A7BBB514660782A46012301F066FBA8B9E562B60006F4FE7606F130032344D878997881
:403A400034445A7841EA002694F8303042EA062643EA062626F07046CDE74FF0FF33E362012003B0BDE8F08FD8F8243083614661002B3FF441AF08F13003C36100203CE750
:403A8000514660785A46012301F0B0FB0028E7D1226AA369C2EB0B029A42E070C0D294F80290B9F1010F01D8BAE7A3699B4409F1FF395A4660785146012301F097FBB9F178
:403AC000010FF2D1ACE7514660785A46012301F08DFB0028C4D1226AA369C2EB0B029A42E070BFF474AF94F80290B9F1010F01D86DE7A3699B4409F1FF395A466078514672
:403B0000012301F073FBB9F1010FF2D15FE7494660785A4601F06AFB0028A1D1226AA369C2EB0B029A42E070BFF411AF94F802C0BCF1010F7FF60BAF00952546644600E093
:403B4000AB699B44013C5A4668784946012301F04DFB012CF4D12C46009DF8E6D8F81410B21E02398A4236BFD8F82810002303FB021383617BE7614660782A460123CDF8AE
:403B800004C001F033FB00287FF46AAF226AA369AA1A9A42E070DDF804C0BFF4F4AE94F802B0BBF1010F7FF6EEAE01962646644600E0B3691D440BF1FF3B2A4670782146EE
:403BC000012301F013FBBBF1010FF2D1A4463446019ED8E603682DE9F04F1A46044685B0894611F8013B2F2BFAD05C2BF8D00023A36099F800301F2B40F27F81924604F10C
:403C0000200300932023002584F8203084F8213084F8223084F8233084F8243084F8253084F8263084F8273084F8283084F8293084F82A302B4619F803000826202803F17C
:403C400001022AD92F284DD05C284BD02E282CD0B54224D200F17F01C9B21E292BD900F12001C9B21C2926D9222818D0AE4B01E0884214D013F8011F0029F9D1A0F1610317
:403C8000192B01D82038C0B2009B58551346013519F803005A1C2028D4D8914465BB4FF0060A504605B0BDE8F08F0B2EF7D008250B261346ECE719F802100233A1F140025F
:403CC0003E2A03D981F080027C2AE8D8721E9542E5D2009A6F1C50551A46009B0235D9551346D5E74A44914612F8013B2F2BFAD05C2BF8D0002DD2D094F820302568E52B64
:403D000004BF052384F82030212834BF04230023204684F82B30FFF7DDFD0190002840F0FB80A769EE6ABE4215D0EB7805F1300B002B75D1594668783A46012301F0DCF99A
:403D400040B14FF0FF33EB624FF0010A504605B0BDE8F08FEF62E3691A78002A00F0A780DA7A02F03F02A271D97A080736D4187894F82010884231D1587894F821108842F6
:403D80002CD1987894F82210884227D1D87894F82310884222D1187994F8241088421DD1587994F82510884218D1987994F82610884213D1D87994F8271088420ED1187A8C
:403DC00094F82810884209D1587A94F82910884204D1997A94F82A30994272D0A769226823693FB94FF0040ABAF1040F94F82B305FD056E703F120064C4B9E42F2D8C6F37F
:403E00000803002B4ED161690137A76159BB1189B1EB561F46D80023A3614FF0040AE3E7594668783246012301F0E0F900288BD12A6AAB69B21A9A42E870BFF47BAF95F88D
:403E40000280B8F1010F01D874E7AB691E4408F1FF38324668785946012301F0C7F9B8F1010FF2D166E75089013810EA562819D1104603930292FFF729FA012849D9411CE3
:403E80004CD0029A039B51698842C4D20239871E8F42606103D25089916A00FB07184746C4F8188030331A44E26126613AE794F82B3013F0040F14BF4FF0040A4FF0050A65
:403EC000EFE694F82B305B072BD4D2061ED523699AF80010C3F3080330335344D87E9A7E032942EA002201D0A2608BE6597D1B7D43EA012342EA0342F6E72046802384F833
:403F00002B3005B0BDE8F04FFFF7E4BC4FF0050AC7E64FF0020A67E7824665E74FF0010A62E7DDF804A0BCE6E46B0000FFFF1F002DE9F04F85B005460468FFF7CBFC804671
:403F4000002840F0C680AE69DFF8B092E76AB74216D0E37804F1300A002B40F09680514660783246012301F0C7F840B14FF0FF33E3624FF00108404605B0BDE8F08FE662F7
:403F8000E8690378E52B01D0002B3AD1AF69E66AB7420FD0E37804F1300A002B40F09C80514660783A46012301F0A6F80028DDD1E869E7620021202201F017FFEB6905F117
:403FC000200143EA0102920740F0AB8005F12402181D814238BF9342C0F0A3802A6A1A606A6A5A60404695F828201A7295F829205A7295F82A209A720123E37005B0BDE8F0
:40400000F08FAE692B682F692EB94FF00708404605B0BDE8F08F20374F45F6D8C7F3080BBBF1000F2BD169690136AE6129B91A89B2EB571F23D8A961E7E7B3F80AC00CF1F9
:40404000FF3C1CEA572A1AD118460193FFF73EF901280646019B7DD901308AD05A6996427BD2A6F1020E023A72456E6104D9B3F80AC09A6A0CFB0E2A5646C5F818A00BF18F
:40408000300B5B44EB612F6160E7514660783A46012301F0ABF800287FF46BAF226AA369BA1A9A42E070BFF45AAF94F802B0BBF1010F01D853E7A3691F440BF1FF3B3A4621
:4040C00060785146012301F091F8BBF1010FF2D145E7042899D04EE7514660783246012301F084F800287FF444AF226AA369B21A9A4284F80380BFF453AF94F80290B9F17C
:40410000010F01D84CE7A3691E4409F1FF39324660785146012301F069F8B9F1010FF2D13EE795F820201A7095F821205A7095F822209A7095F82320DA7095F824201A7186
:4041400095F825205A7195F826209A7195F82720DA7147E74FF002080DE7284669690193FFF7ECF9019B064600283FF44EAF0128F0D0411C3FF4FDAEDA78002A34D103F1B2
:40418000300000214FF40072019301F02EFE019BA6F1020C5A69911E8C4520D359890020D862C1B100210122DA7018460391CDF808C00193FEF78AFB0399013100287FF49F
:4041C000D8AE019BDDF808C0D86A5A8901309142D862E8D35A69411AE646D96243E75989986A01FB0C00DBE718460193FEF76EFB019B00287FF4BDAEC1E700BFFFFF1F000F
:404200002DE9F04F012983B080460C46076802D97B69994203D3022003B0BDE8F08F62B1012AF8D99342F6D9114638464FF0FF32FEF7E8FE00286FD0EEE73D46012CEAD95A
:404240006B699C42E7D22B78022B68D0032B00F08780012BDFD12A6A04EB540AD5F82CB002EB5A26B34510D0EA7805F13009002A40F0A880494668783246012300F03CFFB2
:40428000002840F096802A6AEE62CAF308032B440AF1010A02EB5A2993F830304E45009310D0EB7805F1300C002B40F0F780614668784A46012300F01FFF002879D1009B51
:4042C000C5F82C90CAF3080A554495F8305043EA0525E3074CBF2D09C5F30B05002D6FD0012D98D0012C96D97B699C4293D2214638460022FEF786FE00288DD17A693B6934
:40430000911E8B4205D23979013341F001013B613971AA4254D92C46D8F800508EE72E6AD5F82CB006EB14265E450DD0EB7805F1300A002B40F08E805146687832460123B0
:4043400000F0DAFEA8BBEE62630003F4FF73EA18134692F8302093F8315042EA0525BDE72E6AD5F82CB006EBD4165E450CD0EB7805F1300A002B4AD1514668783246012334
:4043800000F0BAFEA8B9EE62A30003F4FE7303F130022A44D07891781D44527895F8303041EA002542EA052543EA052525F0704594E74FF0FF33EB62012003B0BDE8F08FA4
:4043C000002029E7494668785A4600F00FFF0028F2D12A6AAB69C2EB0B029A42E870BFF449AF95F802C0BCF1010F7FF643AF0094644600E0AB699B44013C5A466878494684
:40440000012300F0F3FE012CF4D1009C32E7514668785A46012300F0E9FE0028CCD12A6AAB69C2EB0B029A42E870A5D295F80290B9F1010F01D89FE7AB699B4409F1FF398F
:404440005A4668785146012300F0D0FEB9F1010FF2D191E7514668785A46012300F0C6FE0028A9D12A6AAB69C2EB0B029A42E870BFF462AF95F80290B9F1010F01D85BE76F
:40448000AB699B4409F1FF395A4668785146012300F0ACFEB9F1010FF2D14DE76146687832460123CDF804C000F0A0FE002883D12A6AAB69B21A9A42E870DDF804C0BFF4A7
:4044C000F6AE95F802B0BBF1010F7FF6F0AE0194644600E0AB691E440BF1FF3B324668782146012300F082FEBBF1010FF2D1A446019CDCE610B582B001900091E9B10C78ED
:40450000202C09D93A2C18D0084601E03A2B11D010F8013F202BF9D810490B680BB100201870019B63B10020012A0B6018700AD002B010BD013188420CD00B2002B010BD2D
:4045400018460B60F4E7024601A96846FEF704FB02B010BD302CDFD0EFE700BFEC81FF1F2DE9F0418EB0019170B102F03F060446154601A8324602A9FEF7EEFA40B1002388
:4045800023600EB0BDE8F08109200EB0BDE8F081029B0EAF47F82C3D01993846FFF71AFBD0B99DF93730002BC0F2B68015F01C0F40F098809DF81230DA0600F1B280AF07E1
:4045C00002D5D80700F19F8005F00803DBB2DDF80880002B40D141E015F01C0FCFD00428CDD13846FFF7A4FC46F008060028C6D1310740F193800A9B002248212120597444
:404600009A73DA7318740A9B202559769A75DA7518760A9BDDF80880DD720A9B98F80020DD7E997E032A41EA052500F0AE8000229A76DA7698F80010032904BF1A755A75C8
:404640000A9B002201211A775A779A77DA7788F80310002D40F0838046F04006D8F82C200A9B2262636298F80010D87E9A7E032942EA002249D0A260D87F997F5A7F41EAFE
:4046800000211B7FB8F8060042EA012243EA0223002104F12807A0806174E1616161E360C4F80080267438464FF4007201F09DFBB10621D5E568FDB1B8F80A60A168760292
:4046C000B54265612FD9AD1B2068FEF7FFFD01280146A5EB060314D9421C0FD0B54222D91D46F1E79DF8123013F0110F0BD168077FF57EAF082042E7002042E70120A161B1
:404700003DE70220FBE7072039E7587D197D41EA002142EA0142AEE7062030E7DDF808809CE704202BE7C5F30803A161002BE3D0029802394369023B99422DD24289836A09
:4047400002FB013343B303EB5522E26140783946012300F0D1FC0028CED001200FE738462946D8F82C70FFF74BFD00287FF407AF39460298FEF72EF9DDF80880013DC8F8FD
:404780000C5000283FF468AFF9E6597D1A7D42EA012245EA02454AE70220F0E62DE9F04F9A46002385B0CAF80030054620B1036813B18846197819B9092005B0BDE8F08FF4
:4047C000D888A9888842F7D15878019200F08AFC10F0010F019AEFD1687CD5F800C00028EBD12B7CDE0703D4072005B0BDE8F08F6B69E968C3EB0109914528BF9146B9F17F
:40480000000F00F0F18005F128020392E34643E0BBF80A60013E16EA532600F08280AB69DBF81420023B023A934280F0DF80BBF80A20DBF8281002FB03FC1CEB0107019183
:4048400000F0D4805FEA5924374473D03319934288BF941B9BF8010041463A462346CDF808C000F049FC002840F0828095F91030DDF808C0002BC0F2908064026B69B9EB03
:40488000040923446B61DAF80030A0442344CAF8003000F0A9806B69C3F30804002CB7D004F128032B44C4F5007448EA03024C4528BF4C46181D12F0030F08F104020CBF07
:4048C00001210021804538BF93422CBF01220022114243D0092C41D946469E46221F920801329700181F002150F8043F01318A4246F8043BF8D87346BC42A4EB070108EB7B
:40490000070003EB0706B9D01EF82230012908F82230B3D0737802294370AFD0B3788370ACE743BBA868012860D9441C20D00346A86175E7EA69BA420BD095F91030002BFB
:404940001EDB9BF8010003993A46012300F0D4FB70B96C69EF61C4F30804A1E708F1FF32181913F8011B834202F8011FF9D185E70120687421E72868A969FEF7A7FCD2E783
:404980009BF801000399012300F030FC0028EFD12B7C03F07F032B74D3E7EB69DF1BBC427FF66BAF019A7F029B1A9B1BCCEB0303039E5B0208EB030242EA060080073146E5
:4049C00017D10433434405F12C00824238BF9E420FD305F1240302F5007053F8041F42F8041B8242F9D148E70020E6E602206874E3E6013F08EB070305F50A7011F8012BD1
:404A0000814203F8012FF9D137E700BF2DE9F04F9B46002385B0CBF80030044620B1036813B192461A781AB9092005B0BDE8F08F0E468288D9889142F6D1587800F052FB71
:404A4000C507F1D4607CD4F800900028EDD1227C900703D4072005B0BDE8F08F63691AEB030F28BF6FEA030ABAF1000F00F0CE8004F1280203925CE0B9F80A70013F17EAF7
:404A8000532710D1002B40F0B980A068002800F0D080012800F00481421C00F0AA80A368A06103B9A06094F91030002BC0F2B380A369D9F81420023B023A934280F0F0809D
:404AC000B9F80A20D9F8281003FB02FC1CEB0108019100F0E5805FEA5A25B84473D07B19934288BFD51B99F80100314642462B46CDF808C000F07AFB00287AD1E369DDF8B0
:404B000008C0C8EB0308454500F2A3806D022E446369E2682B449A4238BF1A466361E260DBF80030BAEB050A2B44CBF800306CD06369C3F30805002D9ED005F128032344AA
:404B4000C5F5007546EA0302554528BF5546181D12F0030F06F104020CBF01210021864238BF93422CBF01220022114237D0092D35D91F469C462A1F920801324FEA820ED9
:404B8000301F002150F8043F01318A4247F8043BF8D8AE45CEEB05000CEB0E0706EB0E017CD016F822E001280CF822E024D04B7802287B7020D08B782E44BB70237C63F018
:404BC0007F032374A4E7E3696569434502D0E3689D4233D3C4F81C80C5F30805ADE73246013B2E4412F8011BB24203F8011FF9D1E4E70120607418E72E44DFE72046A16930
:404C0000FEF79CFC00287FF444AF227C42F040022274002009E799F801000399E269012300F0E4FA0028E4D1237C03F07F0323743EE720463946FEF781FCE3E799F80100D6
:404C400003994246012300F057FA0028D1D16569C0E7019A03989B1ACCEB0303DF1B7F02F21942EA00039B0706EB48281BD13B1D334404F12C018A4238BF984213D3014665
:404C8000131F04F50A7053F8042F41F8042B8142F9D1237C03F07F03237437E70E468DE702206074C1E604F1270308F5007118F8012B884503F8012FF9D1EAE740B12DE94B
:404CC000F84303680BB11A7822B90920BDE8F88309207047D98882889142F6D10446587800F000FAC107F0D4237C25685A0648D51B065AD4276AEE6AB74212D0EB7805F112
:404D00003009002B5FD1494668783A46012300F0F3F928B14FF0FF33EB620120BDE8F883EF62636ADA7A42F02002DA72A2682168C2F30720D8769A760978032965D0E1680E
:404D400000224FEA11284FEA114C4FEA116E4820212701265876197783F81D8083F81EC083F81FE09A75DA759A74DA741F762846EE70FDF76DFE237C23F04003237490B9E2
:404D80002568002DA1D02B78002B9ED0EA88A3889A429AD1687800F0A5F910F0010094D12060BDE8F883BDE8F883687804F12801E269012300F01AFA0028AED1237C03F06A
:404DC0007F03237496E7494668783246012300F00DFA0028A1D12A6AAB69B21A9A42E87091D295F80280B8F1010F01D88BE7AB691E4408F1FF38324668784946012300F0C2
:404E0000F5F9B8F1010FF2D17DE7120C110A1A75597594E72DE9F04188460106074645D40C2F304C17D0636898472369FF209847236898472C4D2369FF2098474FF4FA7322
:404E40002B6002E02B68002B38D02369FF209847FF28244EF6D1236947F04000984723694FEA186098472369C8F3074098471D4D2369C8F30720984723695FFA88F09847B7
:404E80002B6977B9952098470A252369FF209847020605F1FF330FD513F0FF05F5D1BDE8F081082F12D187209847EDE737200021FFF7B0FF012811D9BDE8F0817368984776
:404EC0003369FF209847FF20BDE8F081012098470C2FD9D12B69FF209847D5E707F07F079EE700BF04050020F481FF1F2DE9F843194D4FF4FA7381468846184E2B6001E065
:404F0000286818B33369FF209847FF280446134FF6D13B6940469847B8F1FD0F18D04FF400714846BB6998473B69204698473B69204698473B692046984700F01F00A0F19C
:404F40000500B0FA80F04009BDE8F883BDE8F8830120BDE8F88300BFF481FF1F04050020F0B40446084E00F12007354620686168A268E3681034BC4206F110060FC5F4D168
:404F800020683060F0BC70470405002008B1012070472DE9F041504E82B0B36898474F4D736898470A23AB60AB68002BFCD14C4F3B789B0704D53878C0B202B0BDE8F0815F
:404FC000B36898470A243369FF209847611E11F0FF04F8D120462146FFF71CFF012880460DD0002273682A7198473369FF20984701233B703878C0B202B0BDE8F0814FF4EC
:405000007A7308204FF4D571AB60FFF703FF012837D101AC0DF108083369FF20984704F8010B4445F8D19DF80630012BD9D19DF80730AA2BD5D102E0FFF7ECFE28B1AB6859
:40504000A9204FF08041002BF6D1AB68002BC8D03A200021FFF7DEFE0028C2D104463369FF20984701AB18550134042CF7D19DF8043013F0400F14BF4FF00C084FF00408E1
:405080001CE02146A920FFF7C5FE01288EBF44464FF00208A92403E02046FFF7BBFE18B1AB680021002BF7D1AB68002B99D010204FF40071FFF7AEFE002892D1736885F8FD
:4050C000048098473369FF209847F36898473B7803F0FE033B706EE704050020F481FF1F4C81FF1F18B9034B1878C0B270470120704700BF4C81FF1F2DE9F84318B104248F
:405100002046BDE8F8831C46002BF8D0344B1B78D80701D50324F3E7324D0E462B791B0758BF5202012C114635D01220FFF772FEDFF8B49040B10124D9F804309847D9F8C1
:405140001030FF209847DBE7C846C827AF6001E0AB683BB1D9F81030FF209847FF28F7D0FE2805D0012400210C20FFF753FEE3E730464FF40071D8F814309847D8F810309B
:40518000FF209847D8F81030FF209847013C06F50076DBD1E7E71120FFF73CFE10B1DFF84890C8E7C823DFF84090AB6002E0AB68002BC0D0D9F81030FF209847FF280A4C62
:4051C000F5D0FE28B7D163694FF40071304698472369FF2098472369FF2098470024ABE74C81FF1FF481FF1F0405002070B582B018B10424204602B070BD002BF9D00C4623
:405200002F490878C60701D50324F3E709784D0701D50224EEE72B4E3179080758BF5202012B3DD011F0060F31D1114619200093FFF7F0FD009B48B1234D01246B6898475D
:405240002B69FF209847D5E7013B09D02046FC210093FFF74BFE04F50074009B0028F3D14FF4FA72184D326002E03268002AE4D02A69FF2000939047FF28134C009BF4D180
:405280002269FD201C1C18BF01249047D6E71946972001920093FFF7BDFD019A009BC4E711461820FFF7B6FD0028C5D12046FE21FFF71CFEB0FA80F4034D6409BEE700BFE7
:4052C0004C81FF1FF481FF1F0405002008B104207047AD4B1B78D80701D503207047F0B5154685B0042900F2B080DFE801F04D64AE130300A54C237913F0060F40F0E8806B
:40530000A34E0124736898473369FF209847204605B0F0BD9D4C237903F0040303F0FF01002B00F095808D200021FFF773FD0028E6D1974EFF2033699847C823A36002E037
:40534000A368002BDDD03369FF209847FF28904FF6D0FE28D5D110217B69684698473B69FF2098473B69FF20984730243369FF209847631E13F0FF04F8D19DF80A20102302
:40538000120993402B60BDE7814E804C336898473369FF2098474FF4FA73236003E02368002B00F08F803369FF209847FF28784DF5D10024A6E709200021FFF72BFD0028C9
:4053C0009ED1724CC823724EA36002E0A368002B97D03369FF209847FF286D4FF6D0FE288FD110217B69684698473B69FF2098473B69FF2098479DF800309B09012B00F01F
:40540000A1809DF805309DF80A1003F00F039DF809009DF8072003EBD1139DF808409DF80610023300F00300920002EB941203EB400301F00301DBB202EB8122093B013212
:4054400002FA03F32B6000245CE70424504E59E70920FFF7DFFC00287FF452AFC8234C4EA36003E0A368002B3FF44BAF3369FF209847FF28464FF5D0FE287FF442AF102108
:405480007B69684698473B69FF2098473B69FF209847237903F0020303F0FF00002B62D09DF80A109DF80B309DF80D2001F03F01DB0903EB410392090133013A93402B6064
:4054C00000241FE76B6898472B69FF20984718E700200B216A46FFF7F9FE00287FF410AF9DF800309B0904D19DF80A305A067FF507AF22CD237920201B075CBF49026D02A3
:40550000FFF788FC00287FF4FBAE29462120FFF781FC014600287FF4F3AE2620FFF77AFC00287FF4EDAE47F23053194E236003E02368002B3FF4E5AE3369FF209847FF2859
:40554000F6D136E79DF807109DF8092001F03F019DF808300904013102EB03230B449B022B600024CEE69DF80B309DF80A2003F003015B0903EBC1030133C2F3840202FB36
:40558000033304462B60BDE64C81FF1FF481FF1F04050020114A38B593689BB213B1013B9BB2936013680D4A9BB213B1013B9BB213600B4B0B4DDB692C789847E4B2420793
:4055C0004CBF44F0040404F0FB0483074CBF04F0FD0444F003042C7038BD00BFF481FF1F040500204C81FF1F81F0004102E000BF83F0004330B54FEA41044FEA430594EA4A
:40560000050F08BF90EA020F1FBF54EA000C55EA020C7FEA645C7FEA655C00F0E2804FEA5454D4EB5555B8BF6D420CDD2C4480EA020281EA030382EA000083EA010180EAFD
:40564000020281EA0303362D88BF30BD11F0004F4FEA01314FF4801C4CEA113102D0404261EB410113F0004F4FEA03334CEA133302D0524263EB430394EA050F00F0A7804A
:40568000A4F10104D5F1200E0DDB02FA0EFC22FA05F2801841F1000103FA0EF2801843FA05F359410EE0A5F120050EF1200E012A03FA0EFC28BF4CF0020C43FA05F3C018E6
:4056C00051EBE37101F0004507D54FF0000EDCF1000C7EEB00006EEB0101B1F5801F1BD3B1F5001F0CD349085FEA30004FEA3C0C04F101044FEA445212F5800F80F09A8013
:40570000BCF1004F08BF5FEA500C50F1000041EB045141EA050130BD5FEA4C0C404141EB010111F4801FA4F10104E9D191F0000F04BF01460020B1FA81F308BF2033A3F152
:405740000B03B3F120020CDA0C3208DD02F1140CC2F10C0201FA0CF021FA02F10CE002F11402D8BFC2F1200C01FA02F120FA0CFCDCBF41EA0C019040E41AA2BF01EB0451B5
:40578000294330BD6FEA04041F3C1CDA0C340EDC04F11404C4F1200220FA04F001FA02F340EA030021FA04F345EA030130BDC4F10C04C4F1200220FA02F001FA04F340EAAF
:4057C0000300294630BD21FA04F0294630BD94F0000F83F4801306BF81F480110134013D4EE77FEA645C18BF7FEA655C29D094EA050F08BF90EA020F05D054EA000C04BFE6
:405800001946104630BD91EA030F1EBF0021002030BD5FEA545C05D14000494128BF41F0004130BD14F580043CBF01F5801130BD01F0004545F0FE4141F470014FF00000C4
:4058400030BD7FEA645C1ABF194610467FEA655C1CBF0B46024650EA013406BF52EA033591EA030F41F4002130BD00BF90F0000F04BF0021704730B54FF4806404F132044E
:405880004FF000054FF0000150E700BF90F0000F04BF0021704730B54FF4806404F1320410F0004548BF40424FF000013EE700BF42004FEAE2014FEA31014FEA02701FBFC9
:4058C00012F07F4393F07F4F81F06051704792F0000F14BF93F07F4F704730B54FF4607401F0004521F0004120E700BF50EA010208BF704730B54FF000050AE050EA0102F9
:4059000008BF704730B511F0004502D5404261EB41014FF4806404F132045FEA915C3FF4DCAE4FF003025FEADC0C18BF03325FEADC0C18BF033202EBDC02C2F1200300FA39
:4059400003FC20FA02F001FA03FE40EA0E0021FA02F11444C1E600BF70B54FF0FF0C4CF4E06C1CEA11541DBF1CEA135594EA0C0F95EA0C0F00F0DEF82C4481EA030621EA84
:405980004C5123EA4C5350EA013518BF52EA033541F4801143F4801338D0A0FB02CE4FF00005E1FB02E506F00042E0FB03E54FF00006E1FB03569CF0000F18BF4EF0010EA5
:4059C000A4F1FF04B6F5007F64F5407404D25FEA4E0E6D4146EB060642EAC62141EA55514FEAC52040EA5E504FEACE2EB4F1FD0C88BFBCF5E06F1ED8BEF1004F08BF5FEA6A
:405A0000500E50F1000041EB045170BD06F0004646EA010140EA020081EA0301B4EB5C04C2BFD4EB0C0541EA045170BD41F480114FF0000E013C00F3AB8014F1360FDEBFBE
:405A4000002001F0004170BDC4F10004203C35DA0C341BDC04F11404C4F1200500FA05F320FA04F001FA05F240EA020001F0004221F0004110EBD37021FA04F642EB06013B
:405A80005EEA430E08BF20EAD37070BDC4F10C04C4F1200500FA04F320FA05F001FA04F240EA020001F0004110EBD37041F100015EEA430E08BF20EAD37070BDC4F12005F9
:405AC00000FA05F24EEA020E20FA04F301FA05F243EA020321FA04F001F0004121FA04F220EA020000EBD3705EEA430E08BF20EAD37070BD94F0000F0FD101F000464000E8
:405B000041EB010111F4801F08BF013CF7D041EA060195F0000F18BF704703F00046520043EB030313F4801F08BF013DF7D043EA0603704794EA0C0F0CEA135518BF95EA09
:405B40000C0F0CD050EA410618BF52EA4306D1D181EA030101F000414FF0000070BD50EA410606BF1046194652EA430619D094EA0C0F02D150EA013613D195EA0C0F05D108
:405B800052EA03361CBF104619460AD181EA030101F0004141F0FE4141F470014FF0000070BD41F0FE4141F4780170BD70B54FF0FF0C4CF4E06C1CEA11541DBF1CEA1355E7
:405BC00094EA0C0F95EA0C0F00F0A7F8A4EB050481EA030E52EA03354FEA013100F088804FEA03334FF0805545EA131343EA12634FEA022245EA111545EA10654FEA0026C9
:405C00000EF000419D4208BF964244F1FD0404F5407402D25B084FEA3202B61A65EB03055B084FEA32024FF480104FF4002CB6EB020E75EB030E22BFB61A754640EA0C0022
:405C40005B084FEA3202B6EB020E75EB030E22BFB61A754640EA5C005B084FEA3202B6EB020E75EB030E22BFB61A754640EA9C005B084FEA3202B6EB020E75EB030E22BF49
:405C8000B61A754640EADC0055EA060E18D04FEA051545EA16754FEA06164FEAC30343EA52734FEAC2025FEA1C1CC0D111F4801F0BD141EA00014FF000004FF0004CB6E7A3
:405CC00011F4801F04BF01430020B4F1FD0C88BFBCF5E06F3FF6AFAEB5EB030C04BFB6EB020C5FEA500C50F1000041EB045170BD0EF0004E4EEA113114EB5C04C2BFD4EB38
:405D00000C0541EA045170BD41F480114FF0000E013C90E645EA060E8DE60CEA135594EA0C0F08BF95EA0C0F3FF43BAF94EA0C0F0AD150EA01347FF434AF95EA0C0F7FF46E
:405D400025AF104619462CE795EA0C0F06D152EA03353FF4FDAE1046194622E750EA410618BF52EA43067FF4C5AE50EA41047FF40DAF52EA43057FF4EBAE12E7014B186840
:405D8000704700BFB081FF1F0E4B70B51E460E4C0025E41AA410A54204D056F8253098470135F8E700F042FF084B094C1E46E41AA4100025A54204D056F825309847013532
:405DC000F8E770BD386C0000386C0000386C0000406C000010B5431E0A44914204D011F8014B03F8014FF8E710BD03460244934202D003F8011BFAE7704700000EB400B53C
:405E00004FF402719CB0ADF814106FF00041049107914FF6FF711DABADF81610084953F8042B02900690086802A9019300F064F8029B00221A701CB05DF804EB03B07047D1
:405E4000B081FF1F2DE9F0478E688246B3420C469046994640D38A8912F4906F3AD02568096902236F1A656905EB450595FBF3F57B1C4B449D4238BF1D4653050FD5294660
:405E800000F030FB064698B121693A46FFF7A2FFA38923F4906343F08003A38113E02A4600F076FB064670B95046216900F0D6FA0C23CAF80030A3894FF0FF3043F0400337
:405EC000A381BDE8F08726613E4426604E466561ED1BA560B14500D24E4632462068414600F0A0FAA36800209B1BA36023681E442660BDE8F08700002DE9F0439DB0039360
:405F00008B8906461C060D4690460CD50B6953B9402100F0E7FA2860286110B90C233360CCE040236B610023099320238DF8293030238DF82A3043461C4613F8012B1AB9A5
:405F4000B4EB08090FD002E0252AF5D1F8E73046294642464B46FFF775FF013000F0A980099B4B4409932378002B00F0A28000234FF0FF3204930793059206938DF8533067
:405F80001A9304F101084446DFF8489121784846052200F039FA08F10108049B30B1C9EB00000122824013430493ECE7D80644BF20228DF85320190744BF2B228DF853202D
:405FC00022782A2A02D0079923460EE0039A0134111D12680391002ABBBF524243F0020307920792B8BF04930AE01C4622780133303A092A03D80A2000FB0121F5E70791DF
:4060000023782E2B1AD163782A2B0AD1039B02341A1D1B680392002BB8BF4FF0FF3305930CE0611C00220C4623780131303B092B03D80A2000FB0232F5E70592DFF89880C9
:4060400021784046032200F0DFF938B1049AC8EB00004023834013430493013421781A48062204F101088DF8281000F0CDF988B1164B33B9039B073323F0070308330393B2
:4060800013E003AB0093304604A92A46104BAFF3008007E003AB0093304604A92A460C4B00F092F8421C074603D0099B3B44099341E7AB895B0601D4099801E04FF0FF3051
:4060C0001DB0BDE8F08300BF006C000000000000455E0000F66B0000FC6B00002DE9F84391461F468A680B6906469342B8BF1346C9F8003091F843200C46DDF8208012B1DA
:406100000133C9F800302368990642BFD9F800300233C9F80030256815F006051CD094F843302268003318BF012392061FD5E118302081F843005A1C94F845102244023325
:4061400082F8431013E03046394604F119020123C047013007D00135E368D9F800209B1A9D42F0DBDBE74FF0FF30BDE8F8833046394604F14302C0470130F4D02268D9F880
:406180000050E36802F00602042A08BF5D1B2269A3680CBF25EAE57500259342C4BF9B1AED184FF00009A9450ADA3046394604F11A020123C0470130D5D009F10109F2E7DE
:4061C0000020BDE8F88300002DE9FF410C461746227E98466E2A06460A9B01F1430100F0B08012D8632A23D00AD8002A00F0BD80582A40F0CC8084F84520DFF804E257E087
:40620000642A1ED0692A1CD0C1E0732A00F0B18009D86F2A2ED0702A40F0B980226842F0200222603FE0752A24D0782A3BD0AEE01A6804F14205111D1960136884F842306E
:40624000A9E020681A6810F0800F02D0101D186008E010F0400F02F10400186002D0B2F9003000E01368002B3EDA2D225B4284F8432039E020681A6810F0800F02D0101D18
:40628000186007E010F0400F02F10400186001D0138800E01368227EDFF864E16F2A0CBF08220A221CE07822DFF858E184F845202268186812F0800F00F104051D6003D117
:4062C000550601D5038800E00368D00744BF42F0200222601BB9226822F0200222601022002084F8430002E0DFF814E10A226568002DA8BF2068A560A4BF20F00400206003
:4063000003B965B10D46B3FBF2F002FB10331EF8033005F8013D03460028F4D100E00D46082A0BD12368DA0708D5236962689A42DEBF302305F8013C05F1FF35491B2161B8
:406340002EE025681A6815F0800F606903D0151D1D60136808E015F0400F02F104051D60136801D0188000E01860002323610D4616E01A68111D19601568002128466268C6
:4063800000F042F808B1401B6060636804E004F1420584F8422001232361002384F84330CDF800803046214603AA3B46FFF796FE013002D14FF0FF301FE0304639462A46AC
:4063C0002369C0470130F5D023689B0705D4E068039B9842B8BF18460FE00025E368039A9B1A9D42F3DA3046394604F119020123C0470130DED00135F0E704B0BDE8F08136
:40640000076C0000186C000010B5C9B202449042034605D01C7801308C42F8D1184610BD002010BD814210B501EB020301D3421E0BE09842FBD28118D21AD34204D013F8C3
:40644000014D01F8014DF8E710BD994204D011F8014B02F8014FF8E710BD000030B500293CD051F8042C0B1F1D49002AB8BF9B180A680C4612B95A600B6030BD93420DD215
:4064800019685818904201BF5A5852181A60426823605A6030BD994203D80A4651680029F9D1146815199D420AD11B682344D0188842136012D10868034413604B680CE01E
:4064C00002D90C23036030BD1C681819884201BF08684968001918605960536030BD00BF0482FF1F70B5CC1C24F0030408340C2C38BF0C24002C064603DA0C23336000209B
:4065000070BD8C42F9D3204A136810461946A1B10A68121B0ED40B2A03D90A608B188C501FE08B420BBF5A684A6802605A6018BF0B4616E00B464968E9E7144D2B681BB94F
:40654000304600F04BF828603046214600F046F8421C0346D1D0C51C25F0030585420AD11C6003F10B001A1D20F00700821A0AD05142995070BD3046E91A00F02FF801304E
:40658000BBD02B46ECE770BD0482FF1F0082FF1FF8B5074615460E4621B91146BDE8F840FFF7A0BF1AB9FFF759FF2846F8BD00F025F8A8420ED238462946FFF793FF0446B5
:4065C00050B131462A46FFF705FC38463146FFF745FF01E03046F8BD2046F8BD38B5064C0023054608462360F9F786FF431C02D1236803B12B6038BD2805002051F8040CDC
:406600000028BEBF091851F8043CC018043870470000000025732045525221207265733D0000000046525F4F4B00000046525F4449534B5F4552520046525F494E545F4556
:406640005252000046525F4E4F545F52454144590000000046525F4E4F5F46494C45000046525F4E4F5F50415448000046525F494E56414C49445F4E414D450046525F44CE
:40668000454E49454400000046525F45584953540000000046525F494E56414C49445F4F424A45435400000046525F57524954455F50524F544543544544000046525F4912
:4066C0004E56414C49445F44524956450000000046525F4E4F545F454E41424C4544000046525F4E4F5F46494C4553595354454D0000000046525F4D4B46535F41424F522E
:406700005445440046525F54494D454F5554000046525F4C4F434B454400000046525F4E4F545F454E4F5547485F434F5245000046525F544F4F5F4D414E595F4F50454E12
:406740005F46494C4553000046525F494E56414C49445F504152414D45544552000000002564000054727920746F206D6F756E742E2E2E0A000000006469736B5F696E694D
:406780007469616C697A65207265743D25640A002F00000053442D43415244206D6F756E74204552524F522121206E5265733D0046525F494E56414C49445F445249564594
:4067C0000A00000046525F4449534B5F4552520A0000000046525F4E4F545F52454144590A00000046525F4E4F5F46494C4553595354454D0A00000053442D434152442055
:406800006D6F756E7465642E204653545950453D0000000046415431320A000046415431360A000046415433320A0000554E4B4E4F574E0A000000003E3E3E3E5465737446
:40684000696E672050494F206D6F64652E2E2E0A000000002F2F746573742E7478740000665F6F70656E000054657374696E672053706565640A0000665F7772697465006D
:4068800057726974696E6720256420627974657320746F2066696C652C206E6F6E2D444D410A00002F2F5445535450494F2E62696E000000665F636C6F736500546F6F6B3C
:4068C00020256C75206D730A000000005261746520256C75206B6270730A0A0052656164696E672025642062797465732066726F6D2066696C652C206E6F6E2D444D410AF4
:4069000000000000665F726561640000546F6F6B20256C75206D730A566572696679696E672E2E2E000000004641494C203A4F0A0000000020416C6C20476F6F6421203AC0
:40694000440A00003E3E3E3E54657374696E6720444D41206D6F64652E2E2E0A0000000057726974696E6720256420627974657320746F2066696C652C20444D410A0000E9
:406980002F2F54455354444D412E62696E00000052656164696E672025642062797465732066726F6D2066696C652C20444D410A00000000544553542046494E4953484534
:4069C00044210A003E3E3E3E3E2053746172742042656E63686D61726B2E2E2E2E2E0A0073697A652C207772697465286D73292C207772697465286B627073292C2072652B
:406A00006164286D73292C2072656164286B627073290A0025642C200000000025752C200000000025642E0A0000000048656C6C6F205344430A00000051004020003051C7
:406A400000404000C0510040100000000140000E800E0140800100140140000800400140000A004C01400002005001402000000030313233343536373839414243444546CC
:406A800000000000010000008C6A000001000000D06B0000000000000000000001000000A46A0000010000008C6B000003000000D06A00000000000000000000000000005F
:406AC0000000000000000000CC6A0000020A000000008103080002000100820240000A000100030240000A0002030000040309042C03430079007000720065007300730076
:406B00002000530065006D00690063006F006E0064007500630074006F007200100355005300420055004100520054003803430044004300200043006F006D006D00750077
:406B40006E00690063006100740069006F006E00200049006E007400650072006600610063006500260343004400430020004400610074006100200049006E0074006500D2
:406B8000720066006100630065000000090243000201018032090400000102020103052400100104240202052406000105240100010705810308000A09040100020A00003D
:406BC000040705820240000007050302400000001201000202000008B40432F20100010280010000222A2B2C3A3B3C3D3E3F5B5D7C7F00004300232D302B2000686C4C0001
:406C00006566674546470030313233343536373839414243444546003031323334353637383961626364656600000000F8B500BFF8BC08BC9E4670474D00000081050000FA
:406C4000F8B500BFF8BC08BC9E46704729000000606C00000881FF1FB00000007883000000000000300500207F80000003000000300000000000C05D80BB0000006CDC0225
:406C8000FF000000FFFF000000C2010000000800C201000000080000A12000000000020000000000010000000000000000000000000000000000000000000000000000007D
:406CC0000000000000000000F46B00000000000000000000000000000000000000000000000000000000000000000000000000000000000000000000000000000000000035
:406D000000000000000000005081FF1F0000000000000000000000000000000000000000000000000000000000000000000000000000000000000000000000000000000064
:406D40000000000000000000000000000000000000000000000000000000000000000000000000000000000000000000000000000000000000000000000000000000000013
:406D800000000000000000000000000000000000000000000000000000000000000000000000000000000000000000000000000000000000000000000000000000000000D3
:406DC0000000000000000000000000000000000000000000000000000000000000000000000000000000000000000000000000000000000000000000000000000000000093
:406E00000000000000000000000000000000000000000000000000000000000000000000000000000000000000000000000000000000000000000000000000000000000052
:020000040003F7
:0200000480007A
:4000000001450040035200400164004002030140010501400107014001090140080B0140390C0140380D0140040E0140310F014001170140011901400840014008410140E4
:400040000542014003430140024401400E450140044601400647014005480140014C014002500140035101407E0210A211827C408E0FE602EE04E204EE08EE08AA01AB02D7
:40008000AE80B008B301E204EA06EC01080E0C1018231A041C241E092425260A3020340F361038203E4158045B045F0180108260848D850D8640873089148B2B8C4D8E80E1
:4000C0009002920D96809702980199089A329B349CCD9D249F1BA072A208A4CDA812AA64ACCDB00FB303B480B53CB670BA82BB20BE10D440D604D804D904DB04DF010008E6
:400100000140038005100601080809080A410B040F05102012801390150819401A401B901D101F41222432A43B145C8062106362648067806B026C01860487408C01914809
:400140009201931597029A109B809D409E80A024A108A280A620A780A902B120B240C0CDC2CFC42FCC0ECE06D610D80FE408D409D604DB04DF0100140140038009800A8028
:400180000B101028138218111A402006210422D423152941325539543A0240054280480149094A404B10518852105C015D285E40622065026702682C69546A026B807203F0
:4001C00073028C10C00FC20DC40FCA09CC0FCE0FD00DD20CD6F0D894EA02EA0233013408378038203B023F40CCE0CE708740942097409C089F81AB01E640EE2080109420CE
:400200009C089F81E2209F81AC08EE108F02E008031008015C405F026140650485408C409B02C008C208D607D801E0028120A904AB10AC0109280E20A520A610AE10C20E14
:4002400023809F80AF01C840EA40AD0800010E0100AD0102100A0000041A0000071838020102001804188002561A09000AC1103800330044609C000384820000840000008F
:40028000800004008418000008007F0F001380E008000088000041006502100004CEFB0D1FFFFFFF2200F008040000000000022404040404000000010000C0004001101160
:4002C000C001001140014001000000000000000000000000000000004000000000000000C0000000010010E3E200E2000000000000000000000000000000000000000000F2
:4003000000000000000000000000000000000000000000000000000000000000000000000000000000000000000000000000000000000000000000000000000000000000BD
:40034000000000000000000000000000000000000000000000000000000000000000000000000000000000000000000000000000000000000000000000000000000000007D
:40038000000000000000000000000000000000000000000000000000000000000000000000000000000000000000000000000000000000000000000000000000000000003D
